:020000040800F2
:10000000E80700200502000835150008F90C000873
:1000100031150008AD030008FD18000800000000BD
:10002000000000000000000000000000391500087A
:10003000B103000800000000371500083D16000855
:100040001F0200081F0200081F0200081F0200080C
:100050001F0200081F0200081F0200081F020008FC
:10006000BD0B00081F0200081F0200081F02000845
:100070001F0200081F0200081F0200081F020008DC
:100080001F0200081F0200081F0200081F020008CC
:100090001F0200081F0200081F0200081F020008BC
:1000A0001F0200081F0200081F0200081F020008AC
:1000B0001F0200081F0200081F0200081F0200089C
:1000C0001F0200081F0200081F0200081F0200088C
:1000D0001F0200081F0200081F0200081F0200087C
:1000E000410B00081F0200081F0200081F02000841
:1000F0001F0200081F0200081F0200081F0200085C
:100100001F0200081F0200081F0200081F0200084B
:100110001F0200081F0200081F0200081F0200083B
:100120001F0200081F0200081F0200081F0200082B
:1001300000F002F800F03CF80AA090E8000C8244BD
:100140008344AAF10107DA4501D100F031F8AFF29A
:10015000090EBAE80F0013F0010F18BFFB1A43F0A5
:10016000010318471C6A00003C6A0000103A24BFD3
:1001700078C878C1FAD8520724BF30C830C144BF0C
:1001800004680C607047000000230024002500264E
:10019000103A28BF78C1FBD8520728BF30C148BFEA
:1001A0000B6070471FB500F062F81FBD10B510BDA1
:1001B00000F09BF81146FFF7F5FF01F035FC00F069
:1001C000B9F803B4FFF7F2FF03BC00F0C3F8000076
:1001D0000B49D1F800C04A685CF8043B1068184429
:1001E00042F8040B8C4528BFA1F1DC0C8A4228BFE1
:1001F000A1F1DC02C1F800C04A6020F00040704765
:100200007C0100200948804709480047FEE7FEE7D7
:10021000FEE7FEE7FEE7FEE7FEE7FEE7FEE7FEE7B6
:1002200004480549054A064B70470000911600082E
:1002300031010008E8010020E8070020E803002061
:10024000E80300200B4910B5A1F17C020A4CC2E979
:100250003712372106E000EB104342F82130074BFC
:1002600000FB03400B1EA1F10101F4DC10BD0120D5
:10027000E8E700001C010020E119D666CD0D010061
:1002800010B5203AC0F00B80B1E81850203AA0E831
:100290001850B1E81850A0E81850BFF4F5AF5FEA65
:1002A000027C24BFB1E81850A0E8185044BF18C918
:1002B00018C0BDE810405FEA827C24BF51F8043BBF
:1002C00040F8043B08BF7047D20728BF31F8023B13
:1002D00048BF11F8012B28BF20F8023B48BF00F8A7
:1002E000012B7047704770477047754600F02CF837
:1002F000AE4605006946534620F00700854618B013
:1003000020B5FFF78DFFBDE820404FF000064FF00D
:1003100000074FF000084FF0000B21F00701AC463A
:10032000ACE8C009ACE8C009ACE8C009ACE8C00959
:100330008D46704710B50446AFF300802046BDE8F7
:100340001040FFF73EBF00000048704784010020C6
:100350007047000001491820ABBEFEE726000200EE
:1003600010B5002418E00E4850F8240098B9F02089
:100370000C4941F82400FFF72BFF642190FBF1F2B8
:1003800001FB12002730084941F8240001200449EC
:1003900041F8240002E0641C022CE4DD00BF10BD23
:1003A000740000205C0000206800002000BFFEE711
:1003B0007047002100E0491C8142FCD370470000D7
:1003C0002DE9F74F05460E462F46B04602986428A1
:1003D0007ED066287DD06D2848D075287AD1A6F1C8
:1003E00011001FFA80F83EE02F4634E0781BA6EBA0
:1003F000080101EB810202EBC10100EB4100012188
:1004000001EB40008A490C5C4FF6FF7000EA0424BF
:10041000781BA6EB080101EB810202EBC10100EBA6
:100420004100834911F81000204484B204F4784953
:100430004FEAE92904F4FC6B4FEA6B1B04F01F0A36
:10044000AAEB0900072804DC22464146384600F0A2
:10045000FFFC781C87B205F11A00B842C6DC08F12F
:1004600001001FFA80F8B045BEDDDDE0A6F1110005
:100470001FFA80F842E02F4638E0781BA6EB08010F
:1004800001EB810202EBC10100EB4100012101EB14
:10049000400068490C5C4FF6FF7000EA0424781BAA
:1004A000A6EB080101EB810202EBC10100EB410068
:1004B000604911F81000204484B204F478494FEAEE
:1004C000E92904F4FC6B4FEA6B1B04F01F0A02E0FD
:1004D00017E05DE0A7E0AAEB0900072804DC22464C
:1004E0004146384600F0B4FC781C87B205F11A008A
:1004F000B842C2DC08F101001FFA80F8B045BADD4D
:1005000092E0A6F111001FFA80F83EE02F4634E099
:10051000781BA6EB080101EB810202EBC10100EBA5
:100520004100012101EB400043490C5C4FF6FF7094
:1005300000EA0424781BA6EB080101EB810202EB20
:10054000C10100EB41003C4911F81000204484B285
:1005500004F478494FEAE92904F4FC6B4FEA6B1B79
:1005600004F01F0AAAEB0900072804DC22464146D2
:10057000384600F06DFC781C87B205F11A00B842CD
:10058000C6DC08F101001FFA80F8B045BEDD4BE083
:10059000A6F11A001FFA80F842E02F4638E0A6EBD9
:1005A0000800791BC1F1110101EB810202EBC101CD
:1005B00000EB4100012101EB40001E490C5C4FF6AD
:1005C000FF7000EA0424A6EB0800791BC1F11101B9
:1005D00001EB810202EBC10100EB4100154911F86A
:1005E0001000204484B204F478494FEAE92904F465
:1005F000FC6B4FEA6B1B04F01F0AAAEB09000728EB
:1006000004DC22464146384600F022FC781C87B2C2
:1006100005F11200B842C2DC08F101001FFA80F8AF
:10062000B045BADB00E000BF00BFBDE8FE8F0000B0
:10063000C8290008EC2500084422000808B54FF43A
:10064000A070F02300221146009044F6F95000F00B
:1006500027FC08BD70B504460D460D4B0D4E36689F
:100660009A5DA5F1090399B2A4F10D0398B2FFF7C1
:10067000A7FE08480068401C064908600846006854
:10068000032190FBF1F201FB12000249086070BDEA
:10069000380000203C0000202DE9F04104460D46C2
:1006A00027462E46A5F1230086B22CE0274624E0FB
:1006B000A81BC0EB001000EBC000391B084401214F
:1006C00001EB4000124911F800804FF6FF7000EA7C
:1006D0000828A81BC0EB001000EBC000391B084421
:1006E0000B4911F8100040441FFA80F84246314689
:1006F000384600F0ADFB781C87B204F18800B842A0
:10070000D6DA701C86B2AE42D0DDBDE8F0810000C2
:10071000C03500082DE9F04F80468B4616469A46B4
:100720003546002704E00A20B5FBF0F5781C87B2B7
:10073000002DF8D106B90127BAF1000F1CD13546BA
:10074000002416E00A20B5FBF0F100FB115907EB7D
:10075000870108EB410104EB8402A1EB820188B21E
:100760004A46594600F06EF80A20B5FBF0F5601CC9
:1007700084B2BC42E6DB19E03546002414E00A20CE
:10078000B5FBF0F100FB115904EB440101EBC4018E
:10079000A8EB010188B24A46594600F053F80A20F6
:1007A000B5FBF0F5601C84B2BC42E8DBBDE8F08F1D
:1007B0002DE9F84F04460D469146A0462F46A5F177
:1007C0000D0087B239E0A04631E0E81B00EBC00025
:1007D000A8EB04010844012101EB400019F8006076
:1007E0004FF6FF7000EA0626E81B00EBC000A8EBFE
:1007F0000401084419F81000304486B206F4784A1F
:100800004FEAEA2A06F4FC6000900098401100903C
:1008100006F01F0BABEB0A00072804DC3246394612
:10082000404600F015FB08F101001FFA80F804F1C2
:100830000A004045C9DC781C87B2AF42C3DDBDE881
:10084000F88F000070B505460E4614460A2C42D2B9
:10085000DFE804F0050B11171D23292F353B1F4A34
:1008600031462846FFF7A4FF35E01D4A31462846A9
:10087000FFF79EFF2FE01B4A31462846FFF798FFFF
:1008800029E0194A31462846FFF792FF23E0174A2C
:1008900031462846FFF78CFF1DE0154A31462846B1
:1008A000FFF786FF17E0134A31462846FFF780FF1F
:1008B00011E0114A31462846FFF77AFF0BE00F4A54
:1008C00031462846FFF774FF05E00D4A31462846B9
:1008D000FFF76EFF00BF00BF70BD0000B85B0008EF
:1008E000B45C0008B05D0008AC5E0008A85F0008BA
:1008F000A4600008A06100089C62000898630008DA
:10090000946400082DE9F04F04460D462746A8469A
:1009100000BF3CE0274632E0A8EB0500C0EBC0007A
:1009200000EB8000391B0844012101EB40001A490B
:100930000E5C4FF6FF7000EA0626A8EB0500C0EB40
:10094000C00000EB8000391B0844134911F8100067
:10095000304486B206F478494FEAE92906F4FC6B84
:100960004FEA6B1B06F01F0AAAEB0900072804DCFC
:1009700032464146384600F06BFA781C87B204F1E3
:100980002300B842C8DC08F101001FFA80F8E81D16
:100990008045BFDBBDE8F08FD63300082DE9F84F66
:1009A00005460E4693462F46B046BBF1000F45D193
:1009B00000BF3EE02F4634E0A8EB0600C0EBC001CC
:1009C00001EB4010791B0844012101EB4000414933
:1009D0000C5C4FF6FF7000EA0424A8EB0600C0EBA5
:1009E000C00101EB4010791B08443A4911F810008E
:1009F000204484B204F478494FEAE92904F4FC6005
:100A0000009000984011009004F01F0AAAEB090022
:100A1000072804DC22464146384600F019FA781CC3
:100A200087B205F12700B842C6DC08F101001FFAC1
:100A300080F806F115004045BCDC48E0BBF1010F31
:100A400045D1A6F114001FFA80F83EE02F4634E0AD
:100A5000A6EB0800C0EBC00101EB4010791B084475
:100A6000012101EB40001B490C5C4FF6FF7000EACE
:100A70000424A6EB0800C0EBC00101EB4010791B79
:100A80000844144911F81000204484B204F4784951
:100A90004FEAE92904F4FC600090009840110090AE
:100AA00004F01F0AAAEB0900072804DC224641468D
:100AB000384600F0CDF9781C87B205F12700B8421E
:100AC000C6DC08F101001FFA80F8B045BEDDBDE8C4
:100AD000F88F0000702D0008F0B505460F46002481
:100AE0003E4607E0C4EBC40291B2A8B2FFF70AFF8A
:100AF000F61F641C272EF5DAC4EBC40291B2AA1EBD
:100B000090B20022FFF74AFF3E4600240AE0C4EB01
:100B1000C40240F239139A1A91B2A8B2FFF7F2FE5A
:100B2000F61D641CA12EF2DDC4EBC402C2F5A07256
:100B300091B2AA1E90B20122FFF730FFF0BD000073
:100B400000B50A20FFF735FC17480068012818DBBC
:100B500015480068082814DC1449886800F480608F
:100B600038B9002210490968491E114B43F8212069
:100B700006E001220C490968491E0D4B43F821206B
:100B800000BF09480068401C074908600846006823
:100B90000B2804DB002008600120064908604FF4A0
:100BA00000600549086000BD4C00002000100140B5
:100BB00080000020500000201404014000B50B48C4
:100BC0000068012802D0032808D103E00320074968
:100BD000086003E001200549086000BF00BF044829
:100BE000FFF7E7FB04200349086000BD2C0000204C
:100BF000A0860100140401400021194A116001215E
:100C0000184A11600021184A11600321174A116027
:100C10000021174A1160174A1160174A1160174ADC
:100C2000116042F21071164A11800021154A1160BC
:100C30007821154A1160A021144A11600121144A3B
:100C400011602021134A1160134A1160002004E052
:100C50000021124A42F82010401C0228F8DD70479B
:100C60003C00002024000020400000203000002034
:100C70002000002014000020100000202800002088
:100C80005600002034000020180000201C00002026
:100C90002C000020100C01401018014074000020AE
:100CA00010B5FFF7CBFC0F4801680F480068FFF74D
:100CB000D1FC002412E00D4850F82400012804D093
:100CC0000A4850F82400022807D1094A52F8241093
:100CD000084A52F82400FFF7FFFE641C022CEADDEC
:100CE00010BD00001C00002018000020740000202F
:100CF000680000205C00002000BFFEE7114880690A
:100D000040F008000F4988610F48006820F4700027
:100D10000D4908600846006840F440100860094822
:100D2000806940F04000074988610848006820F465
:100D30007000064908600846006840F440100860EA
:100D40007047000000100240000C014000180140F4
:100D5000014601F007021202054B18684FF6FF0327
:100D60001840044B18431043014B186070470000B3
:100D70000CED00E00000FA052848806940F0100002
:100D8000264988612648406820F47040244948601C
:100D90000846406840F4004048600846C06840F497
:100DA0000060C8601D48806940F001001B498861EF
:100DB0001C48006920F470411A480161006940F440
:100DC0000051184801611848006840F40060164955
:100DD000086015480C30006840F4006012490C317E
:100DE00008609521114801701148006840F4807036
:100DF0004FF0E021C1F804010848806940F010007C
:100E0000064988610648406820F4706004494860DB
:100E10000846406840F40060486070470010024097
:100E200000100140000001400004014028E400E0FF
:100E300004E100E000204FF0E02108610348486130
:100E40000846006940F00300086170478F5F0100A9
:100E500010B503460C462A2000F022FA181200F0C2
:100E600019FAD8B200F016FA012000F013FA3F2068
:100E700000F010FA2B2000F013FA201200F00AFA0A
:100E8000E0B200F007FA012000F004FADF2000F0E1
:100E900001FA2C2000F004FA104600F0FBF910BD16
:100EA000F0B507460C46059D00262A2000F0F8F90B
:100EB000201200F0EFF9E0B200F0ECF91919491E28
:100EC000C1F30F2000F0E6F91919491EC8B200F06D
:100ED000E1F92B2000F0E4F9101200F0DBF9D0B2B8
:100EE00000F0D8F9A918491EC1F30F2000F0D2F97B
:100EF000A918491EC8B200F0CDF92C2000F0D0F995
:100F000000BF03E0384600F0C5F9761C03FB05F08E
:100F1000B042F7D8F0BD000000B55348406940F436
:100F20008070514948610846806940F00800886136
:100F30000846806940F0200088610846806940F0DA
:100F4000400088610846806940F4807088614748A5
:100F5000006820F00F00454908600846006840F02E
:100F60000300086042480068424908404049086060
:100F700008460068404908433D490860081F00686A
:100F800000F0FF20091F08600846006840F0BB1011
:100F900008603A4800680020384908600846006840
:100FA00040F0BB300860081F006820F07040091F47
:100FB00008600846006840F03040086030484068EB
:100FC00020F470202E4948600846406840F43020E4
:100FD00048600846006820F00F0008600846006876
:100FE00040F00B00086000204FF020418861C8618C
:100FF000244908604FF02040806940F480504FF051
:10100000204188610846806940F480408861084634
:10101000806940F0100088610846C069C8610846D0
:10102000C06940F00100C8610846C06940F47060C2
:10103000C86114480068C1F81C0112480068C1F872
:101040001C010846D0F81C0140F44070C1F81C0196
:101050000846806940F00100886100F015F8012021
:1010600002490C31086000BD00100240000C014034
:101070000414014000F0FF00BB0B00BB041801404A
:10108000002001401C0100A000B5012000F008F97B
:10109000112000F005F93A2000F002F9552000F087
:1010A000F9F8292000F0FCF8362000F0F9F8CA2001
:1010B00000F0F0F800BD00002DE9FF4F05460E4698
:1010C000174610244FF0080B202F01DB7F2F01DD86
:1010D000BDE8FF8FA7F12000C7B22A2000F0E0F89A
:1010E000281200F0D7F8E8B200F0D4F80BEB0501B5
:1010F000491EC1F30F2000F0CDF80BEB0501491E8E
:10110000C8B200F0C7F82B2000F0CAF8301200F087
:10111000C1F8F0B200F0BEF8A119491EC1F30F20CA
:1011200000F0B8F8A119491EC8B200F0B3F82C209D
:1011300000F0B6F84FF0000831E04FF0000A25E06B
:101140004FF000091CE01A4800EB0710012101EBE9
:101150004901A1EB0801405C40FA0AF000F00100EF
:1011600050B1082202FB0862524491B205EB090219
:1011700090B2039AFFF76CFE09F1010000F0FF093D
:10118000D945E0DB0AF1010000F0FF0A04EBD4715D
:10119000BAEB610FD4DB08F1010000F0FF08E117A2
:1011A00004EB5171B8EBE10FC7DB00BF90E7000023
:1011B000906500082DE9FF4F05460E469346102422
:1011C000A2462A2000F06CF8281200F063F8E8B27A
:1011D00000F060F80AEB0501491EC1F30F2000F092
:1011E00059F80AEB0501491EC8B200F053F82B204C
:1011F00000F056F8301200F04DF8F0B200F04AF866
:10120000A119491EC1F30F2000F044F8A119491E8D
:10121000C8B200F03FF82E2000F042F84FF000096D
:101220002DE04FF0000821E0002719E0184800EBFE
:101230004B10012101EB4701A1EB0901405C40FA91
:1012400008F000F0010048B1082202FB09624244A4
:1012500091B2EA1990B2039AFFF7FAFD781CC7B26F
:101260005745E3DB08F1010000F0FF0804EBD471FF
:10127000B8EB610FD8DB09F1010000F0FF09E117BD
:1012800004EB5171B9EBE10FCBDBBDE8FF8F000040
:101290008421000801490880704700000008006CA4
:1012A0000149088070470000FE07006C24488069EF
:1012B00040F00800224988612248006820F0F000D0
:1012C000204908600846006840F0100008600220CD
:1012D0001C49143108601B48001D006820F4702070
:1012E0001849091D08600846006840F4803008600D
:1012F00088141449103108601148806940F080005A
:101300000F498861104800686FF30B000E490860B0
:101310000846006840F0080008600846006840F091
:10132000100008600846006840F4006008608815F6
:1013300005490C31086040000860400008607047B3
:1013400000100240000C0140041C01400721002055
:10135000234A5268234B1A40214B5A601A4612689E
:10136000214B1A401E4B1A601A46126842F4803212
:101370001A6000BF1A4A1268520C002AFAD04FF4C1
:101380008062174B5A601A46526842EA81425A609C
:101390001A46526842F480325A60144A126842F087
:1013A0003202124B1A600E4A126842F080720C4BE5
:1013B0001A6000BF0A4A1268520E002AFAD0084A80
:1013C000526842F00202064B5A6005E0044A526835
:1013D000C2F3870000F003000228F7D17047000035
:1013E000001002400000FFF8FFFFF6FE0020024060
:1013F0002148806940F040001F4988611F4800680B
:1014000020F470601D4908600846006840F40060E0
:1014100008601A480C30006840F0040017490C318D
:1014200008601548806940F001001349886114483C
:10143000806820F47060124988600846806840F433
:10144000806088600F48006840F004000D49086023
:101450000C480C30006840F004000A490C31086068
:101460006521094801700948006840F480704FF018
:10147000E021C1F80001704700100240001801404F
:10148000000001400004014008E400E000E100E049
:101490002148806940F004001F4988611F480068A6
:1014A00020F00F001D4908600846006840F0080061
:1014B00008601A480C30006840F0010017490C31F0
:1014C00008601548806940F001001349886114489C
:1014D000806820F00F00124988600846806840F05C
:1014E000040088600F48006840F001000D49086062
:1014F0000C480C30006840F001000A490C310860CB
:101500007521094801700948006840F040004FF01B
:10151000E021C1F8000170470010024000180140AE
:10152000000001400004014008E400E000E100E0A8
:1015300000BFFEE770477047704710B500F002F833
:1015400010BD00000CB500200190009033480068E9
:1015500040F480303149086000BF3048006800F432
:10156000003000900198401C0190009818B9019833
:10157000B0F5A06FF1D12948006800F4003010B137
:101580000120009001E0002000900098012843D144
:101590002348006840F010002149086008460068B0
:1015A00020F0030008600846006840F00200086070
:1015B0001A4840681949486008464068486008462B
:1015C000406840F4806048600846406820F47C1021
:1015D00048600846406840F4E810486008460068E3
:1015E00040F08070086000BF0C48006800F0007098
:1015F0000028F9D00948406820F0030007494860F6
:101600000846406840F00200486000BF0348406858
:1016100000F00C000828F9D10CBD000000100240B9
:101620000020024000B501230348DC21026870203D
:10163000FFF770F800BD0000400000200E48006871
:10164000401C0D4908600D480068401C0B490860AB
:101650000B480068012804D10A480068401C094969
:10166000086009480068012804D108480068401C47
:101670000649086070470000000000200C000020B0
:1016800014000020040000201000002008000020AA
:1016900010B51348006840F0010011490860084681
:1016A0004068104908400E494860084600680E49E5
:1016B00008400B4908600846006820F48020086054
:1016C0000846406820F4FE0048604FF41F00886020
:1016D000FFF733FF4FF000600449086010BD0000C1
:1016E000001002400000FFF8FFFFF6FE08ED00E0EA
:1016F000012803D10103044A116004E04FF4805132
:10170000014A121D11607047100C0140012803D1DD
:101710004102044A116004E04FF40071014A121DB5
:1017200011607047101C014010B5044600230020D2
:10173000FFF7DEFF0120FFF7E9FF00F0D7F86A4866
:10174000006800F4806008B942F21073E21704EBFD
:101750009272901000EBD0725210A0EB4202012A5C
:1017600003D10120FFF7D2FF02E00020FFF7CEFFF8
:1017700000F0BCF804EBD472501000EBD0725210A1
:10178000A0EB4202012A03D10120FFF7BFFF02E0D4
:101790000020FFF7BBFF00F0A9F8204604EBD07152
:1017A0004910A4EB4101012903D10120FFF7AEFF4D
:1017B00002E00020FFF7AAFF00F098F80120FFF7F1
:1017C000A5FF00F093F80120FFF7A0FF00F08EF8CE
:1017D0000020FFF79BFF00F089F80020FFF796FF3D
:1017E00000F084F84048006800F4807010B103F500
:1017F000006083B200F07AF83B48006800F4807023
:1018000010B103F5806083B200F070F836480068CC
:1018100000F4807010B103F5007083B200F066F838
:101820003148006800F4807010B103F5807083B215
:1018300000F05CF82C48006800F4807010B103F1EF
:10184000800083B200F052F82748006800F48070EE
:1018500010B103F1400083B200F048F8224800685C
:1018600000F4807010B103F1200083B200F03EF864
:101870001D48006800F4807010B103F1100083B2BD
:1018800000F034F81848006800F4807010B103F1DB
:10189000080083B200F02AF81348006800F4807052
:1018A00008B1181D83B200F021F80F48006800F459
:1018B000807008B1981C83B200F018F80A480068DC
:1018C00000F4807008B1581C83B200F00FF800F0EB
:1018D0000DF800F00BF800F009F800F007F801200F
:1018E000FFF706FF184610BD081C01400220024900
:1018F0000860091D08607047100C014000BFFEE73A
:1019000000201EE0104951F82020104909681439C0
:101910008A4215DB0C4951F820200C4909680A3924
:101920008A420DDA0A4951F82010012908D10949E3
:101930000968491C074A11600221054A42F8201033
:10194000401C0228DEDD70475C00002018000020EB
:10195000740000204000002000204FE0294951F889
:101960002020294909680E318A422BDC254951F88B
:101970002020254909680E398A4223DB234951F882
:101980002010012904D0214951F82010022919D131
:101990001F4951F8201010311E4A1268914207DA8F
:1019A0001B4951F8201087311A4A1268914209DC0C
:1019B0000021194A1160194A11602021184A11604A
:1019C000184A116013490968B1F59B7F0BDA114978
:1019D00009680A2907DD0C490968142903DD0A4949
:1019E0000968DC2909DB00210B4A11600B4A1160F0
:1019F00020210B4A11600B4A1160401C0228ADDD0A
:101A0000704700005C0000201800002074000020D7
:101A1000680000201C00002024000020340000206A
:101A2000140C014010180140ACB000240020EF4914
:101A30000860EFA207CA29AB07C3F0A207CA26AB0A
:101A400007C3F1A2D2E900109268CDE924022391E4
:101A50001422F0A11EA8FEF713FC1422F2A119A86B
:101A6000FEF70EFC1822F5A113A8FEF709FC1422BC
:101A7000F8A10EA8FEF704FC1822FBA108A8FEF7A7
:101A8000FFFB1C22FEA101A8FEF7FAFBFFF75EFC9C
:101A9000FFF734F90520FFF75BF9FFF7CBF9FFF704
:101AA0003BFAFFF7A5FCFFF7F3FCFFF765F9FFF73B
:101AB000FDFBFFF7A1F8F948FEF77BFC3BE3F84894
:101AC0000068401CF6490860F6480068012876D195
:101AD000002609E0F44810F82600B040F3490978E0
:101AE0000843F2490870761C072EF3DD002504E058
:101AF0000020ED4941F825006D1C072DF8DDEB486D
:101B0000007877280AD1EA48006838B9FFF774F8F6
:101B1000E248FEF74EFC2020E6490860E3480078E2
:101B20005A280ED1B148006858B90120AF49086061
:101B3000E1490860E14908602020DE490860E04989
:101B40000860DA480078752817D1A848006801288D
:101B500013D100230EE0DB4850F82300962808DA62
:101B6000D84850F823000F30D64941F82300FFF73A
:101B7000F3FE5B1C022BEEDD00BFCC480078722820
:101B800017D19A480068012813D100230EE0CD48F0
:101B900050F82300142808DDCA4850F823000F38F5
:101BA000C84941F82300FFF7D7FE5B1C022BEEDD8E
:101BB00000BF0020BB490860BC49087000BFC24894
:101BC00000680E2191FBF0F0C049096888426EDC84
:101BD0008648006800286BD1FEF730FDBC48BD493F
:101BE0000968425CF0216A20FEF7EAFBB948006808
:101BF000401CB849086008460068032190FBF1F2D8
:101C000001FB1200B34908604FF496713420FEF7CF
:101C100043FD14241DE02646E01704EB5070C0106D
:101C2000001F29A90A5C4FF6FF7314212046FFF715
:101C300043FAE01704EB5070C010001F26A90A5C9D
:101C40004FF6FF7328212046FFF736FA04F108000B
:101C5000C4B2782CDFDB502410E02646E01704EBFA
:101C60005070C0100A3823A90A5C4FF6FF73462152
:101C70002046FFF721FA04F10800C4B2A02CECDBE7
:101C8000342410E02646E01704EB5070C010801F8B
:101C90001EA90A5C4FF6FF73B9212046FFF70CFA24
:101CA00004F10800C4B2BC2CECDB282412E082E171
:101CB00019E12646E01704EB5070C010401F19A927
:101CC0000A5C4FF6FF73A5212046FFF7F5F904F1F2
:101CD0000800C4B2C82CECDB242410E02646E01730
:101CE00004EB5070C010001F13A90A5C4FF6FF737D
:101CF00091212046FFF7E0F904F10800C4B2CC2C92
:101D0000ECDB282410E02646E01704EB5070C010EE
:101D1000401F0EA90A5C4FF6FF737D212046FFF796
:101D2000CBF904F10800C4B2C82CECDB202410E08D
:101D30002646E01704EB5070C010001F08A90A5C8B
:101D40004FF6FF7369212046FFF7B6F904F108004A
:101D5000C4B2D02CECDB14240DE04FF6FF72CB2183
:101D60002046FFF775F84FF6FF7264212046FFF713
:101D70006FF8601CC4B2DC2CEFDD64240DE04FF67C
:101D8000FF7221461420FFF763F84FF6FF722146D9
:101D9000DC20FFF75DF8601CC4B2CB2CEFDD4FF602
:101DA000FF73002214219620FFF704FA4FF6FF7309
:101DB00001221421AA20FFF7FDF94FF6FF7302223A
:101DC0001421BE20FFF7F6F94FF6FF7303222821F6
:101DD0009620FFF7EFF94FF6FF7304222821AA207F
:101DE000FFF7E8F94FF6FF73052275E020000020A9
:101DF000313135353039323230300000313135351E
:101E0000303932323032000047524F55503A205765
:101E100031300000456E7465723A205374617274FB
:101E20002047616D65000000427574746F6E3A2042
:101E30004368616E6765205370656564506C6179B5
:101E40006572313A20546F75636820746F20466C58
:101E500079000000506C61796572323A2038202D8B
:101E60002057616C6C205570506C61796572323A04
:101E70002032202D2057616C6C20446F776E00005B
:101E80005072657373204E756D204C6F636B2074B8
:101E90006F2052657374617274000000A0860100A7
:101EA000440000205000002080000020540000204A
:101EB00024000020100C014014000020100000201D
:101EC00014180140680000202C00002000000020B1
:101ED000380000203C0000202821BE20FFF76AF9CE
:101EE00000209549086095480068012863D194480E
:101EF000006801282AD1FEF7D3FE9248006830B965
:101F000001239148FA2102687020FEF703FC0024A7
:101F100016E08E4850F82400401F8C4941F82400F8
:101F20008B480068801E8A490860884850F8240061
:101F3000002803DC0020874941F82400601CC4B25B
:101F4000022CE6DDFFF7DCFCFFF706FD7C480068AD
:101F500070BBFEF773FB804880490968425C96219C
:101F60006A20FEF72DFAFFF75DFB142410E02646E9
:101F7000E01704EB5070C010801E01A90A5C4FF6F8
:101F8000FF7332212046FFF797F804F10800C4B22E
:101F9000DC2CECDB71480068401C70490860084686
:101FA0000068032190FBF1F201FB12006B4908600D
:101FB0000020614908606A48006840F2572191FB9F
:101FC000F0F06849096888420CDC5C480068012828
:101FD00005D15B480068012801D1FEF7C1F9002056
:101FE0006049086060480068642819DB5F48006841
:101FF00038B101235D484FF48C7102687020FEF700
:1020000089FB00205849086058480068401E57491D
:10201000086008460068401C10B900204949086063
:102020005348006805287DDB45480068012879D1C0
:102030000520FFF779FB4F4908800846008842F2E7
:102040001071884260DD4B4800884B490988401A6E
:1020500032281DDD49480068012819D14848006828
:102060000A30474908603E49086800EBD0714910C2
:1020700001EB81010A31364A12681144344A116079
:10208000FFF73EFCFFF768FC3A4800883A490880B1
:102090003848008838490988401A10F1320F1BDA95
:1020A00036480068012817D1354800680A38344995
:1020B00008602B49086800EBD071491001EB8101E1
:1020C0000A31234A12681144214A1160FFF744FC87
:1020D00028480088284908802748008842F2107163
:1020E000884211D12348008823490988401A1E28B4
:1020F00007DC2048008820490988401A10F11E0F8B
:1021000002DA01201D4908601A48008842F2107165
:1021100088420CDC19480068012808D100201749C2
:10212000086000E006E042F21070134908800020C9
:102130000F49086000BFC2E400000020200000201A
:102140002400002010000020400000205C0000203F
:102150001C00002074000020380000203C000020FB
:102160002C00002004000020080000203000002087
:102170000C000020580000205600002028000020FD
:102180001800002000000000040245862458343066
:10219000044C078604020000000003C00004000293
:1021A0003FFE0000000000000080008020802080B2
:1021B0002484248223FF24802880309000A000C043
:1021C00000000000008008800A9E09A948A96BA9A8
:1021D0000C9E0880008202060C08343004480586F4
:1021E0000603000100000218026002803FFF028027
:1021F0000260000007F00882304000000FFF080076
:1022000008400FC0000000000080008000800080B7
:1022100000800080008000800080008000800080BE
:10222000000000000000043004C005007FFE05002F
:1022300004C0000000000480044404027FFE040087
:1022400004000000F845F84DD94DF94DF94DD85529
:102250009665557DF3942652A46183716371A569D7
:10226000C851E949E9410A42378D776DD84D394661
:10227000F8451946F945F945F845194EF94DD94D36
:10228000984DD8658A22273A05520CACCBC3CBCBEC
:10229000CBCBEDB3C649DFFFDFFFFFFF092A6B1A87
:1022A000F965F94DF94D194EF94DF94D194EF945AC
:1022B000FA4DDA4DB95D777DE549A2698079C8E3C9
:1022C00087F387F3A9D30CBCA549FFFFDEF7FFFF17
:1022D000E8394A2A766DB855B94DD94DF94DF94DC1
:1022E000F845F94DD9559865567DE6410CC488E30B
:1022F00086F320DA20F221E22089A269FDFFDEEFD9
:10230000FEF7DEFF9EFFFFF76A22976D985DD955B5
:10231000D94DF94D1946B74D77654922E551EBCBBB
:1023200042CA21E221EAE0F1C0F902E24181C45946
:102330001AE7FEF7DEF7BEF7C749E849BFEF2922E3
:102340008B1A9865D94D1946F945B75D558DE651FB
:10235000407966F300EAC0F1C0F9C0F9C0F902EAB9
:102360004289C459F9DEFEF7FFFFFFFFC849C8499B
:10237000DFFF293A6B2A776DD9551946FA4D7765F3
:10238000C65187B223D200F2E0F9C0F9C0F9C0F912
:1023900080F9E2E9E0908471F9E6FEF7DDEFFFFFF6
:1023A000A641C849DFFFE9312B229875D855F94D70
:1023B000DA45776D856186C223E2E1E9E2F1C1F198
:1023C000C0F1E0F9C1F9E2F145D2C8B2A551FADE97
:1023D0005BDFFEF7BEFFBFFFBFFFE9394B3257752A
:1023E000B85DF84DD84D9775C65188AAA7CA45CA99
:1023F00026D225DA03DA22F2E1F9C1F102E286D22D
:102400004369DAF61AE7DDFF9DFFBEFF9FFF094231
:10241000093A5685B765D855B8653575E749A56950
:102420006371637922794289219144CA02E202F2FE
:1024300002F223D2C9B2A561E351034A0452E45126
:10244000E551C4492552263A757D976D2A2A4A3AA4
:102450001CEFBEFFBDFFDDFF9CFF9CFFD8FE62713D
:10246000009103D222EA23D2828151E5CEEDEDED37
:10247000CCE5CDE5CDE5EDE5CDDDF0D52542283245
:10248000C941E8411CE7BEF7FFFFDEFFBDFFBCFF0F
:10249000D8FE6269209123CA43DA85D2617990ED32
:1024A0006BED8AEDAAEDAAEDABED8BEDABE5AED50C
:1024B0002542283AE951E9499FF7FFFFDEF7BDFFC2
:1024C000DEFF9DFF427124B2C1C1E1C900A120819C
:1024D0006FEDA069A071C079C069E069C071A069A1
:1024E000E16903525385966D0A420942BFF7BFF76F
:1024F000DEF71BEFE751656905B282C1A0C9A1C92A
:10250000C2B944AAA0798EE58EED6DED8DE5AEE5FC
:102510006EE590E591D5053A9675D85D6A2A492A07
:10252000DFF7DFFFBEFFFBE6C7596571E4C181D16C
:1025300080D180C9A1C9E2B1207990ED8EDDAEDDF8
:10254000AFDDAFDD8FE5D1DD91C5663A966DD8552B
:10255000766D76756A2A292A493A293A08428661AF
:10256000E5A9A3C1C3B9C3B9C3B904AA6692E4611A
:10257000034A234A234A234A034A254A463A747D9A
:10258000B75DD955D855B85D9865976D976D9775B6
:10259000767D1595A661647965716571647185694B
:1025A000C651139D747D9575957595759575967540
:1025B000B66DD765D855F94DF94DF94DD955D95D59
:1025C000D95DB85D9865567DE849A659A759A759C0
:1025D000A759C751E841568D976DD85DD85DD85D34
:1025E000D95DD955D955F955F94DF94DD94DF94D13
:1025F000184EF845F84DD855776D557D138DE64149
:10260000C551C6696561A661E851C741E841093A0B
:10261000578D77759855F94DDA45DA4DFA4DD94D04
:10262000B94DFA55F94DF84D974DD86D8A2A273A8C
:10263000264A0DA40DBC0DC4EDBB0EB4C651BEFFA1
:10264000DFFFFFF72A2A8B1AF965D94DFA4DFA55A3
:10265000FA4DF94DFA4DDA4DDA4DB9559765758554
:10266000C64983696179C9DBA9E3A9E3CBCB0DBC7A
:102670008449FFFFDFF7FFF7092A6A22766DB75D0D
:10268000B855B94DD94DFA4DD94DD955B955976D64
:102690005585C641EDC389DB87EB41D241DA62CA79
:1026A0004081A269BCFFBDFFFEF7FFF7BFEFFFEF60
:1026B0006A22776D7765D95DD94DFA4DF94DB755D9
:1026C000766D482AE5510BC464C242DA41E220E249
:1026D00000E222D22089C369F9EEDDF7DEF7DEF7EA
:1026E000E8410842DFE729228B129865D955F94560
:1026F000D84D965D548D0552617188E322E2E0E980
:1027000000EAE0F1E0F123E24089A369F9EEFEF787
:10271000FEFFFEFFE749E849DFFF2A328B2277659B
:10272000D855F945B95D566DE749A8A264C222DAC9
:1027300002EAE1F1E1F9C0F9A0F9E2E10089A36957
:10274000F9EEFDFFDDF7FEFFA641C841DFFFE931ED
:102750004A22976DD855F8457865367DC651C8AA86
:1027600085C244CA44DA24DA03E203EAE2F903EA5E
:1027700085C208ABA459FAE65BE7DEF7BEFFBFFFF0
:10278000BFFFE9398A327675D755F84DB97D368560
:10279000C741A559A461426143712379228166C270
:1027A00004E203E264DA86BA4369DAFE3BEFFEFF35
:1027B000FFFFDFFFBFFF093A292A767D9765D855CD
:1027C0004B1A0922FFFFDEFFBEFFBEFFBFFF5DFF0A
:1027D0001BFFE270E0A003DAE2D1A6D24379B9FE92
:1027E000D9EEDCFFBCFFBDFF9DFFE7410732758DD1
:1027F000766D97656B324932FFF7FEFFFFFFDFFF13
:10280000BFFFBFFF9DFFE479E09044DA64EAE3C9CB
:10281000C8B26369C361E251025AE251E351035203
:10282000244A253A3485557D4A2A492A5CD7FFF740
:10283000FFFFDFFFDFFFBEFFD9FE8271209124D2B0
:1028400023DA64D2618950EDB0EDCFE5CFDDCFDD85
:10285000D0DDD0DDF1D5F3C54732692A776D567DDD
:102860000822073AC741A751A751A659436186A23A
:10287000C3A923C265D284C260796FED4DED6DEDC1
:102880008DE58DE58DE58EDDCFDDD1CD473A492A49
:10289000975D76658A2A08328641A6598561646902
:1028A000227924AAC2B102C2009900894FFDA07109
:1028B000C071007AC069C071E071E069C059234AF3
:1028C000338D5585B955B85DF55C0922C7498982B4
:1028D000478A269AE4B181B1A0B9E1C1C1B943B236
:1028E00060796FED8EED6DE5AEE58EE56FDD90DD27
:1028F000D1CD043A747D976DD94DD955B9655775C9
:10290000359D085AA569637925B2A2B1E2C1A1B982
:10291000E2B1E3A16171B1E58FD5D0D5D0D5D1D5E4
:10292000B1D5F3CDD2BD8732956DB7651A46D9457D
:10293000D94DB85D5665357D2942A659079206AA3C
:10294000C4A9E5A905AA459A668AE459244A6442BD
:10295000443A453A463A473A672A947DB665D75D88
:10296000D93DFA45FA45B94DFA5D97655685D49C2F
:10297000866144796581448164798469C559F2A48A
:10298000328D738573857485547D957D7675B76DAD
:10299000D75DD755FA45D945D945B945D94D98554B
:1029A0009875158DA7498661666186618661C659ED
:1029B000C74176957675966D9665B76DB86D775DFE
:1029C000B865B855D84DF84DD845194EF845F84575
:1029D000F94DD955786D367D1495E649836963794B
:1029E00064716569C759C851A751E849568D576543
:1029F000D9551A4EF9451946F945F945194ED845A4
:102A0000F845F84DD84DB8656A22293A064A2EB4E1
:102A1000CBCBEBD3CBCB0EBCC759BFFFBFFFBFFFA8
:102A20002A328C1AB85DB8453A4EF945F94DF94D40
:102A3000F945F94D194EF94D975576750642A26143
:102A40006071C9DB87EB66EBA8DB4DCC8549FFFFE6
:102A5000BEFFFFFFE831292A7775B85DFA4DD945E9
:102A6000F94DD94DFA4DFA4DD95D775D776D6932E3
:102A70000DACCACBA8EB42DA00E241DA20898169C9
:102A8000DEFFFFF7DEF7FFFFDFFFFFFF4A22576D94
:102A9000985DFA55D94DF94DDA4599556C1A2A2A9F
:102AA0006B3AC741A461418123DAE0E9E0F122E217
:102AB0006179C559F9E6FEF7FEF7DFF7C841C9416C
:102AC000DFF74A2A8C1A985DD94DF945B9657875B2
:102AD0004B3209420842074AA559627944D202EAB8
:102AE000C0F123E24279C559F9DEFEF7FFF7FFFF97
:102AF000E849E849DFFF293A6B22B86DD855F94516
:102B00002A3A093ABFF7DFF7FEFFDDFFBEFFBDFF40
:102B1000427986CA03E224DA21898469FAEEDEF773
:102B2000DEF7FFFFA641E749DFFFE8314A2A566D8D
:102B3000D855F94DC851E851DFFFDEF7DDF7DDF775
:102B4000FFF7DEFF7CFF6281E09824DA45CAA8B275
:102B5000A561FBEEFBE6FFFF9EFFBEFFDFFF083A2D
:102B6000292A767DD855F84DC951E849FFFFFDF770
:102B7000FDF7FEF7FFF7FEFF9CFFA469418964D2D1
:102B800003DA44D24379BAFE1BEFBEFFDFFFBFFF7B
:102B9000BFFF09422932767DB75DF94D2B3AE93105
:102BA0003BDFFEF7FEFFFEF7FFF7DEFFFAF684617C
:102BB000418923D202EA43E247AAA569A451C34945
:102BC000C451C451C451C549254A26327575B765EB
:102BD000786D977D28321BDFFADEFADE1BD7DAE646
:102BE000A56188AA24D202EA01F202DA428172E5E2
:102BF000CFEDADE5CCED8BE5CCEDCCE5CCE5EFDD77
:102C00002542283AB955976549223CE7FBE61BEF78
:102C1000FAEED9FE437987CA03E202EA02E263CA06
:102C2000817990E58DE5ACEDABEDABEDCBE5CBE59A
:102C3000ABE5AEDD254A283AF94DB85D7675082A30
:102C4000E7518561A569427904C281C981D1A1C9D1
:102C5000009180816DE5C061A161E261C159E259D5
:102C6000E359E359E459064A557D976DF845B8553F
:102C7000986D6B32E7516982068A05AA81C960D9CD
:102C800060D1A1C903AA2292007A8FE591DD92D585
:102C9000B2D592CDB4D594CDB5CD08329765F94D66
:102CA000194EF955985D8B22E841697A689AE4A932
:102CB000A1C9A0E160D180C9C1C1E2B1207991F57B
:102CC00090E5D0E5B0E5B1E591DDD3D5B3C5683A7F
:102CD000B765F94DF945F94DB855B86D358DE741F2
:102CE000C6594371E3B9A2C1C2C1C2C1C3B9E4B1FB
:102CF000689A8461E351034A0352E349044AE43980
:102D0000463A547DD75DF94DF94DF94DF94DD855F9
:102D100097657775357DF39C85694381447944795E
:102D200064798569A659F4A454859575957595754A
:102D300096759675B66DB765D855F94DF94DF94D3F
:102D4000F94DF94DD94DD95D98653685C7516669FC
:102D5000866986618661A759C8493695976DD855A9
:102D6000D85DD85DD955D955D955F955F94DF94D95
:102D7000F94DD7656722CE8C0C8DAC952C9E4CA658
:102D8000AFB610C730C791CFD2DFF2DFF4DFD3D7B1
:102D9000B2D750C70FBF30C78EAE2CA62DA6CB958D
:102DA0004A854A85C874876C6764255CE553055479
:102DB000C453065CA75BC95B862295759765D85D91
:102DC000966D682A8A638763C55B055CE45BC45BB8
:102DD000E563C55BC45BC463C463C55BC55BE56396
:102DE000C45BC45BE563C563C55BE663A55BC55BAC
:102DF000E65BC55BC65BE65BE65BC55BE65B066404
:102E0000E75BA75BA95BA72A5475B8757675757DD6
:102E100006322963A96B8763875BA7638763876B28
:102E200087638763866B866387638763876388634B
:102E3000876367638863886367638863886388637D
:102E4000876387638763875BA763A763A65BA75BCB
:102E500088638A63062A5585777D892A4732053A31
:102E60004442233A433A423A423A4342434243427B
:102E70006342424242424242423A433A433A434226
:102E8000433A4342433A233A633A433A4232223284
:102E9000423242324232623A623AA23A6232633A91
:102EA0002432A73A48320922463A04328863865BC4
:102EB000865BC663A563A563A55B855B865B855B57
:102EC00065638563A563A55BA65B855BA55BC65B48
:102ED000A55BA55BA55BC55BA55BC55BC55BE55B52
:102EE000E55BE55BE55BE55B255CC453E65B865B28
:102EF000A9638A5B2732054A2442A763A55BE56381
:102F0000A35BA35BE463E463C45BE563C463A45BAA
:102F1000C463C463C45BE563A353C45B045CC45B68
:102F2000A353E45BC453C45BE45BE45B045C045CF8
:102F3000045C045C0354C34B445CE453065CE763E9
:102F4000885B053AC549454A55DF93D7D2DFD1DFC3
:102F5000F2E7F2E7D2DFB1D7B2D771D730CF30CFB7
:102F6000EFBEAEB6AEB64DAE2CA62CA6CB95898DD7
:102F7000698D2885077D087DA674866C866C4564FE
:102F8000245C245C034C034C2454055C8553A763E8
:102F90006642E651E34133D7B2DFB0DFF1E7F1E754
:102FA000F1E7D1DFB1D7D1DF70CF4FC74FC70FC720
:102FB000CDB6ADB68DAE2BA60BA6EA9DA995898D93
:102FC0002885E77CE77CA674866CA66C6564245C27
:102FD000045424542354034C0454065CA75B454218
:102FE000E549234A32D7B1DFB0DFD0E7F1E7F1E7B7
:102FF000F1DFB0DFB1DF90D74FCF6FCF2EC7ADB6C7
:10300000ADB68CAE4BA64BA6EA95A98DA98D488589
:10301000277DE774C66C866C866C6664045C245CF1
:103020000454245424540454E65BA7632442044A01
:10303000224A52DFB1DFB0DFB0DFF1E7F1E7F1E7BD
:10304000D0DFB1DF70D74FC74FC70EC7ACB6ADB634
:103050008CAE4BA62BA6EA95A98DA98D487D077D40
:10306000E774C7748664866C6564045C245C0454ED
:10307000045404540554E65BA763244223424242AD
:1030800073DF91DFB1DF90DFF1E7F1E7F0DFD0DF51
:10309000B0DF90D74FC76FC72EBFADB6ADB66CAE21
:1030A0004BA62BA6CA95898DA98D4785077D0775E7
:1030B000C674A56C866C6564045C245C045C045472
:1030C00004540554E65BA76324422342424273DF63
:1030D00092DFB1DFB0DFF1E7F1E7F0DFAFDFB0DFC4
:1030E00090CF4FC74FC72EBFCDB6ADB66CAE2BA697
:1030F0002BA6CA95898D898D2785077D067DC57488
:10310000A56CA56C6464035C045C045C0454045406
:103110000554E65BA76324420442224252D7B2DF41
:10312000B1DFD1E7F1E7F0E7EFE7AEDFAFDF8FCF59
:103130004EC74EC70DBFACB6ADB66CAE4BA62BA6F8
:10314000C995A88DA88D2785277D067DC56C856CC2
:10315000A56C6464235C235C0354235424540454FA
:10316000E65BA7632442044A224232D7B1DFB0DFD4
:10317000D1E7F1E7F1EFEFE7AFDFAFD78FCF4EC782
:103180004EC70EBFACB6ADB66CAE2BA62BA6C9957E
:10319000A88DA88D2785277D077DA56C856CA56CDE
:1031A0006464235C235C2254235423540454C65B7C
:1031B000A7632542E449224A52D7B1D7D0D7F0DFDE
:1031C000F1EFF1E7F0E7B0DFB0D790CF4FC74FC7CF
:1031D0002EC7CDBEADB66CAE2BA62BA6CA95898DDB
:1031E000A98D4785277D077DA66CA56CA66C4464D8
:1031F000045C245C035423540354055CC65B88635D
:103200000542E549234252DFB0D7D0DFD0DFF2EFED
:10321000F2E7F2E7B1DFB1D770CF2FC72FC70EC7E4
:10322000CDBEADB66CAE2BA62BA6CA9D8995A98D39
:103230002885077D077DA674A66CA66C4564045C92
:10324000245C035423540454E55BC663886305423D
:103250000542244233DF92DFD1E7D0DFF2EFF2E71D
:10326000B1E7B1DF90DF70D74FD72FCFEEC6ADBE3D
:10327000AEBE6DAE2CA62CA6EB9D8A95898D2885B9
:10328000E77C077DC674856C866C4564045C245CB1
:103290000354245CE453C55BC76388634542E6413D
:1032A000454A14DF53DFB2E7B2E7D3EFD4EF73DF61
:1032B00093DF92DF71DF31D7F0CED0C6D0C68FBE9C
:1032C0004EAE0DA60DAECC9D8B958B952A8DE984C7
:1032D0000985A87C877487742664E55B055CE45BDC
:1032E000E55BC55BA65BA76388632542E741E541D3
:1032F00074D635E7D2D633DF95E755DF96E7B6EFDC
:10330000B6EF95EF75E755DF55DF55DF75E755DF0C
:1033100014D714D7B3CE72C671BE30B6CFADCFAD11
:103320008EA54D952D95EC8C8B84AB848B7C4A744B
:103330004B74EA6B896B4A6B2642E841E7412542B0
:1033400024424342433A64426542243A443A444266
:10335000443A443A443A443A443A443A243A243ABD
:103360004542443A443A6542443A443A653A443A1A
:10337000443A653A453A253A453A45322432463A86
:10338000263A063A4742C639C931093A483A473AD5
:103390002632673A072A683A48324732473247327C
:1033A0006732683267324732683A683A4832683A78
:1033B00048324832483247322732473227322732A2
:1033C00028322732072A272A6832683248324832A0
:1033D000072A0832083262420B95498DA9952BA61F
:1033E0002BA68DB6EEC60EC76FD7D0DFD0DFF1E7C4
:1033F000B0DFB1DF6FD70EC70EC7ADB62BA62BA6B9
:10340000A99548856885C774A66CA66C245C04548D
:103410002454245424540454E65B633A42420B95EA
:10342000498DA9952BA62BA6ADBE0ECF0EC76FD783
:10343000B0DFD0DFF1E7B0DFB1DF6FD70EC70EC767
:10344000ADBE4BA62BA6C99568856885C774A66CCA
:10345000A66C245C04542454245424540454E65B81
:10346000633A42420B95498DA9952BA62BA6ADBE7A
:103470002FCF2ECF6FD7B0DFD0DFF1E7B0DFB1DFD6
:103480006FD7EEC60EC7ADB62BA62BA6C99568851D
:103490006885C774A66CA66C245C04542454245418
:1034A00024540454E65B633A62420C95498DA99515
:1034B0002BA62BA6ADBE0ECF0EC76FD7B0DFD0DFC9
:1034C000F1E7B0DFB1DF6FD70EC70EC7ADBE2BA6D9
:1034D0002BA6A99548856885C774A66CA66C245C44
:1034E00004542454245424540454E65B633A624242
:1034F0000B95498DA9952BA62BA68DBE0EC70EC781
:103500006FD7D0DFD0DFF1E7B0DFB1DF6FD70EC705
:103510000EC7ADBE4BA62BA6C99568856885C77436
:10352000A66CA66C245C04542454245424540454DF
:10353000E65B633A4242EB8C298DA9952BA62BA61C
:103540008DBE0EC70EC76FD7D0DFD0DFF1E7B0DF7B
:10355000B1DF6FD72ECF2EC7ADBE4BA62BA6A99538
:1035600048856885C774A66CA66C245C04542454F2
:10357000245424540454E65B633A4242EB8C298D74
:10358000A9952BA62BA6ADBE0EC70EC76FD7B0DF71
:10359000D0DFF1E7B0DFB1DF6FD70EC70EC7ADBE2A
:1035A0002BA62BA6A99548854885C774A66CA66C42
:1035B000245C04542454245424540454E65B633A95
:1035C0001B46FA45F94DB75D766D6A22E929E9395E
:1035D000093AC83108320832E831093AEA39E9399A
:1035E00029322932093AE939293A2A2A6B1A976D80
:1035F000D85DF94DF94DFA4DDA4DDA55F94DF94DE1
:10360000F94DF94DFA4DFA4DFA451A461946194643
:10361000F945F945F94DF94DF94DF94DF945F9459A
:10362000F94DF94D1A46FA45FA4DDA55F94DF94575
:10363000F94DF94DF94DD955D955F94DF945F9459A
:10364000FA45FA45DA45FA4DFA4DFA4DF945F9458C
:10365000F94DF94DF94D19461946F945F94DFA4D0F
:103660001A56D95D6B1A2A2A293208320942E939D9
:10367000E931EA39C939C9312B320A1A986DD95D55
:10368000D94D1A4EDA451B4EFA45FA3DFA45FA4530
:10369000FA55D94D19461946F84DD84D1A56F94DD7
:1036A000D94DD94DF9451946F94DF94DF94DF94521
:1036B000FA45FA451A4EB845F95597652A2AE9316F
:1036C000293AE83128320832E83109324B32DA3D02
:1036D000FA4DF95D9765767D292A0932E839E8398E
:1036E000E8390832E831C831C831C939C839C72981
:1036F0000832C8312A428729092A4A1AB86DD85592
:10370000F94DF945FA4DDA4DDA4DF94DF94DF94DCE
:10371000F94DFA4DFA4DFA4DFA45FA4519461A4E49
:10372000194EF94DF94DF94DF94DF94DF945F94D50
:10373000F94D1946FA4DDA4DDA55F94D1946F94D5C
:10374000F94DF94DD955D955F94DF945F945F94591
:10375000F94D1A4EF94DFA4D1A4EFA4DF94DF94DF3
:10376000F94DF94519461946F945F94DF94DFA4D06
:10377000B85D2A1A092A293AC731C739C839C83168
:10378000A831A831C83109320922777D7765F9550A
:10379000FA4DD94DDA4D1A4EFA451A4EFA45FA4D00
:1037A000FA4D194EF845194EF94DD945F94DFA4DD6
:1037B000FA4DF945F945F94DF94DF94DF94DFA4DE7
:1037C000FA4DD945F94DD84D97652A2A093AE8317D
:1037D0000832C729E831083AE831E929F94DB84DEE
:1037E00056654A1AE821FFF7FFF7FFFFFFFFFFFFCB
:1037F000FFFFFFFFFFFFFFFFC941C841FFFFFFFFC2
:10380000FFFFDFFFFFFFFFEF4A1AB86DD855F94DF4
:1038100019461946FA45FA4DF94DF94DF94DF94D4C
:10382000FA4DFA4DFA4DFA4DFA4DF94DFA4DFA4D61
:10383000D94DD955D955F94DFA4DF94DF94DF94DA7
:10384000F94DF94DDA55DA4DFA4519461A4EF94D4A
:10385000F94DF94DF94DF94DF945F945194ED9454F
:10386000F945F945D845D94DD945D94DD94DD94D09
:10387000F9451946193EF945D94DD955D84DB86580
:103880008B32DFF7FFFFFFFFFFFFFFFFFFFFFFFFB1
:10389000DFFFFFFFFFFFFFFF082A6B22B765B84D70
:1038A000D955D955B94DDA4DFA45F945D945D945D6
:1038B000F94DFA4DD94DFA4DF94D1A4EFA4DFA4DD2
:1038C000F945F945F94DF94DF94DF94DD94DFA55EF
:1038D000DA4DB94DF8559765092ABFFFFFFFFFFF85
:1038E000FFFFFFFFDFFF093A0A32B855F86D8B2260
:1038F000FFEFFFFFFFFFFFF7FFF7FEFFDEF7DEF74B
:10390000FFFFBEF7FFFFC849C741FFFFFEFFDFFF14
:10391000FFFFDFFFFFF74A22976DD9551946194679
:103920001946FA45FA45F94DF94DF94DF94DF94D5C
:10393000DA4DFA4DFA4DFA4DF94DF94DF94DD9558B
:10394000D955D955F94DFA4DFA4DF94DF94DF94D75
:10395000F94DFA4DFA4DFA451A461A4EFA4DFA4DFE
:10396000F94DF94DF94DF94DF94DF94DF94D194E06
:10397000F94DF84D194E194ED945FA4DFA4DFA4DFB
:103980001A461A46F945D94DD955D855B86D2A2A3F
:10399000FFFFFFFFFFFFFEFFFEFFFFFFFFFFFEFF3A
:1039A000FEFF9DF7FFFF9EEFFFF78B12D86598553E
:1039B000D955FA55D94DF945194E1946D845FA4DFC
:1039C000D94DFA4DD945FA4DB945F94DF94DFA4D54
:1039D000FA4DF94DF94DF94DF94DD94DDA4DDA4D14
:1039E000FA4DB855B875E929DFFFBFFFFFFFFFFFAC
:1039F000FFFFDFFFE8390932566D56754A2ABFEFDF
:103A0000FFFFFFFFFFFFFEF7FEFFFFFFFFFFDEF7F9
:103A1000FFFFDFFFA741E749FEFFFEFFDEFFFFFFDD
:103A2000FFFFFFF74B22B86DD9551946F94DF94DF7
:103A3000F94DF94DF94DD94DF94DF94DF94DF94D76
:103A4000F94DF94DF94DF94DF94DF94DF94DD9555E
:103A5000F94DF94DF94DF94DF94DF94D1946FA4524
:103A6000FA4DFA4DFA45FA45FA4DF94DF94DFA4538
:103A7000FA45FA4DFA4DFA4DFA4DD94DD945F94D61
:103A8000F945D845F845F945D945D94DDA4DDA4DCE
:103A9000FA45D945D94DD84D1966B76D4A32FFFF61
:103AA000FFFFFEF7FFFFFFFFFFFFFEF7FEF7FEF74A
:103AB000FEF7FEF7DEF7DFEF4A2A5675B765D855F1
:103AC000D84DF84DF845194ED845194EF945FA4DDF
:103AD000FA4DFA4DF94D1A4ED94DD94DFA4DFA4DD0
:103AE000DA4DFA4DF94DF94DFA4DFA4D99451A5600
:103AF000D95D576DC931BFFFFFFFFFF7DEF7DFFF6D
:103B0000DFFFC8390932F15B6A2AFFF7DFF7FEF7FA
:103B1000FEF7FEF7FFFFDEFFFFFFFEFFFEFFFEFFEB
:103B2000FFFF8741C741DEFFFEFFFEFFFFFFFFFFF4
:103B3000FFF74B22986DD955F94DF94DD955D94D0F
:103B4000D955D955D955F955F94DD955D955D955CD
:103B5000D955F94DF94DF94DD955D955D955D955AD
:103B6000D94DF94DF94DF94DF94DF945FA4DDA4D6B
:103B7000DA4DFA4DF94DD94DF94DF94DD94DF94D73
:103B8000D94DD94DDA4DDA4DD94DFA55B855D85DE4
:103B9000B75DB755D85DB85DB965B965B965D95D2B
:103BA000D95DB85DB8659765767D293AFFFFFFFF5F
:103BB000FEFFFFFFFFFFDEF7FFFFFEF7FEF7FEF75A
:103BC000FDF7FFFFFFFFDFF72A2AEC229665D86595
:103BD000D85DB75DD85DD85DB855D94DFA4DB94DB2
:103BE0001A56F94DD94DF955D955D955D94DD955FB
:103BF000D94DD94DD94DFA4DF945FA4DD94D985574
:103C00009775E931DFFFBFFFFFFFFFFFFFFFDFFF1A
:103C1000C7392A3A6F630932FFF7FFF7FFF7FEF75C
:103C2000FFFFDEFFFFFFBEFFFFFFFFFFDFFFFFFF26
:103C3000C741C741FFFFFEFFFFFFFFFFFFFFFFF789
:103C40002B229875B955D955D85DB85DD855D8553A
:103C5000B85DB85DD855D855B855B855B955B955AA
:103C6000B955D955D955D955B855B855B955D95566
:103C7000D94DF94DF94DF94DD94DD955B95DB95DCC
:103C8000B955D955D85DB85DB85DB85DB855D94D51
:103C9000D94DD94DD94DB94D785DAC124A1A8B2A00
:103CA0006A224A224A224A2A4B2A4B2A4B226B2258
:103CB0006A226A226B2A0A2AE839DFFFDFFFFFFF48
:103CC000FFFFDFFFFFFFFFFFFFFFFEF7FFFFFFFF2D
:103CD000FFFFDFFFFFFF293AE9292A2A6B2A4B223F
:103CE0004A226B222B226C1AB95DD94DFA5D984D90
:103CF000195EF855D855D855B855D955D955B9552F
:103D0000D855D84DF9451946F94DF955D85D77750F
:103D1000C931BFFFFFFFDEF7FFFFDEF7FFFF083A05
:103D2000E9316F6B093AFFFFFFF7FFFFFEF7FEFF78
:103D3000FFFFDFFFFFFFBEFFDFFFDFFFFFFFA7414A
:103D4000C741FFFFFEF7FEFFFFFFFFF7FFF72B2244
:103D50007875B85DB85D976D776D976D976D777570
:103D6000776D976D976D776D776D776D776D776DF3
:103D7000776D776D776D776D776D776D976D9765EB
:103D8000B85DD855D855D855985D786D5775776D0D
:103D9000776D766D766D7775776D776D9865B85DB3
:103DA000D855F9559855B8754B22292A293AE83142
:103DB000293A083A083AE941E941093A09322832F0
:103DC00029324A3A093AE949DFFFFFFFFEFFFFFFC8
:103DD000FFFFFFFFFFFFFFFFDEF7DFFFFFFFDFFF5C
:103DE000FFFFFFFFE8410942E9410A3AE9312A3A77
:103DF000E9390B3A4C2AB865B855B95DB86D7665A6
:103E0000966D766D766D776D776D776D776D786D74
:103E10009865D8551956D85D975D766D5685E93900
:103E2000DFFFDFFFFFFFFEF7FEF7FFFFE739093295
:103E30006F6BE939FFFFFFFFFFFFFEFFDEFFFFFFB4
:103E4000C739C739084AA739084AC841C849C841CB
:103E5000FFFFDEFFFFFFFFFFFFFFFFF74A2277753F
:103E6000B865F9750A220A32E9290A320A3209329A
:103E700029322932E931C831093A2A3AC831E931BF
:103E8000E931E829E931C8292932E829092A357DAB
:103E9000976DF865D85D97654B2AEA31C931E931EC
:103EA000082AE8214A3AE931EA312A2A366DB7650B
:103EB000B855B85D77752A22FFF7FFFFDFFFFFFFD8
:103EC000FFFFDFFFA741C849FFFFFFFFFFFFFFFF25
:103ED000DFFFFFFFE741FFFFFFFFFEFFFFFFFFFFE9
:103EE000DFFF484A0742BEF7DFFFFFFFDEFFFFFFAD
:103EF000DFFFE849C841FFFFFFFFFFF7FFF7FFFFC4
:103F0000FFFF6B32D86DB85D78752B1AC821E83188
:103F1000E8312932E829E931C9312A3A0B324B22FA
:103F2000B765B75D556D29220932E839E839DFFFF9
:103F3000FFFFFEF7FFF7FEF7FFFFE839092A8F635F
:103F40000932FFFFFFFFFFFFDEFFDEFFFFFFBEFFC7
:103F5000FFFFFFFFFFFFDFFF9FFF0952C841FEFF8A
:103F6000FEFFFFFFDEFFDEF7FFF76B32567D767553
:103F7000CC2AFFF7BFFFFFFFDFFFFFFFFFFFFFFFC1
:103F8000FFFFDFFFBFFFBFFFC8499FFFDFFFFFFF4E
:103F9000DFFFFFFFFFFFBFFFFFFFDFFFAB424A1A5C
:103FA000AB12766D767DC829BFFF9FFFDFFFFFFF55
:103FB000FFFFBFFFDFFF9FFFFFFF292A6A1A8B0A5F
:103FC000B875157D292AFFF7FFFFDEFFDEFFFFFF33
:103FD000DFFFA741C849FFFFFFFFFEFFFEFFFFFF16
:103FE000FFFFE741FFFFFEFFFEFFFFFFFFFFFFFFB9
:103FF000E739E739BEFFFFFFDEFFFFFFFFFFDFFF0F
:10400000E849A741BFFFFFFFFFFFFFFFFFFFFFFFE3
:104010002A327675776D2A22FFF7FFFFFFFFDFFF59
:10402000FFFFDFFFDFFFDFFFBFFFCA49C931567562
:10403000AA1A292AFFF7DFFFDFFFBFF7FFFFFEFF06
:10404000FEFFFFFFFEFFFFFFE839092AAF5B2832C2
:10405000FFFFFFFFFEFFFEFFFEFFFFFFFFFFFFFF73
:10406000DFFFDFFFBEFFFFFF8739C741FFFFFEFF16
:10407000FEF7FFFFFFFFDEF74A3AF58C3585292A68
:10408000FFFFFFFFFFFFFEF7FFFFDEFFFFFFDEF793
:10409000DFFFDFFFFFFF8639FFFFDFFFDFFFFFFFEF
:1040A000DFFFFFFFFFFFFFFFFFFF0832E9290A2ABA
:1040B000D47C5695A731DFFFFFFFDEFFDEFFFEFF5A
:1040C000FEFFFFFFFFFFBFF7293A09324A32F584AE
:1040D000F48C293AFFF7FFF7FEF7FFFFFFF7FFFF2A
:1040E000A741E849FFFFFEF7FEF7FEFFFFFFFFFFD6
:1040F000073AFFFFFEFFFEFFDFFFDFFFDEFF0742A5
:10410000E741FFFFDEFFFFFFFEFFFEFFBFFFE849C5
:10411000E841FFFFFFFFFFFFDEFFFFFFBFF74A3A67
:104120001585368DC929DFF7FFF7FEF7FFFFFFFF83
:10413000FEFFFFFFBEF7FFFFC941C939358D492A90
:10414000083ADFFFFFFFDEFFFFFFFFFFFFFFFEFF7D
:10415000FFFFFEFFFFFFE839E929AF5B282AFFF7E1
:10416000FFFFFEFFFEFFFEFFFFFFFEF7FFF7FFFF73
:10417000FFFFFFFFDFFF084AC741FFFFFEFFFEF71B
:10418000FFF7FEF7FFFFE839E839293ADFF7FFFFCD
:10419000FEFFFEF7FEF7FEFFFEFFFEF7FEF7FFFF56
:1041A000FFFFDFFFE741BEFFFEFFDEF7FFFFFFFF80
:1041B000DEF7FFFFFFFFFFF7FFF7FFFFDFFF093A23
:1041C0000942C8419EFFFFFFFEFFFEFFFEFFFEFF0C
:1041D000FEFFFEFFFFFFFFFFFFFFFFFFA7310842CB
:1041E0002842FFFFFFFFFFF7FFF7FFF7FFFFC74181
:1041F000E749FFFFFEFFFEFFFEFFFFF7DFF7E739AE
:10420000FFFFFFFFFEFFFFFFFFFFFFFFFEFFFFFFC0
:10421000FFFFFFFFFEF7FFFFDEFFDFFFC849A63904
:10422000FFFFFEF7FEFFFFFFDEFFFFFFE839E8318B
:10423000E831FFFFFFFFFEF7FEF7FEFFFEFFFEF790
:10424000FEFFFFF7FFFFC841A841E839FFF7DFFF96
:10425000FEFFFEFFFFFFFFFFFFFFFFFFFEFFFFFF71
:10426000FEFFFFFFE839E931AF5B2932FFF7FFFFBF
:10427000FEFFFEFFFEF7FFF7FFFFFEF7FFF7FEF77B
:10428000FFF7FFFFC841A741FFFFFEF7FFFFFEF763
:10429000FEFFFFFF0842FFFFBEF7FFFFFEFFFDFF2F
:1042A000FEFFFEF7FDF7FEFFFFFFFEFFFEFFDEFF56
:1042B000FFFFA639FFFFFFFFFFFFFEF7FEFFFFFF37
:1042C000FEFFFFFFFEF7FFFFDFFFFFFFBFF79FF7D8
:1042D000C849DFFFDEFFFFFFDEF7DEF7FFFFFFFF6E
:1042E000DEF7FFFFFFFFFFFFFFFFFFFFDFFFC63926
:1042F000FFFFDEF7FFFFDFFFFFFFDFFFA741E7491B
:10430000FFFFFFFFFEFFFFFFDFFFDFFFE741FFFFD4
:10431000FFFFFFFFFFFFFFFFFEF7FEF7FFFFFEF7C8
:10432000FEF7FEF7FEF7DEFFFFFFE849E741FFFF7C
:10433000FFFFFFFFFFFFFFFFFFFFE841DFFFDFFFA2
:10434000FFFFFFFFFEF7FEFFFEF7FFFFFFFFFEF799
:10435000FFF7FFFFC841094A9FFFBFFFFFFFFFFFB5
:10436000DEF7FEF7FFFFFFFFFEFFFEFFFFFFFFFF91
:10437000FFFFE839E9318F5B0932FFFFFFFFFEFFE6
:10438000FEF7FEF7FFF7FFF7FFF7FFF7FFF7FFF77F
:10439000FFFFE841E849DEFFFEF7FFFFFFFFDEFF1A
:1043A000FFFFE741FFFFFFFFFEFFFEFFFEFFBDF740
:1043B000FFFFFEFFFEF7FFFFFFFFFFFFFFFFDEFF38
:1043C000C739FFFFDEFFFEF7FEFFFEFFDEF7FEFF51
:1043D000FEFFFFFFDEF7FFFFDFFFFFFFFFFFC84924
:1043E000BFFFFFFFFFF7FFFFFFFFDEF7FEFFFFFF4F
:1043F000DEF7FFFFFFFFFFFFBEF79EFFE741FFFF76
:10440000FFFFDEFFFFFFFFFFDFFFA741E749FFFFE1
:10441000FFFFFFFFFFFFFFFFBEFFE741FFFFDFFFE3
:10442000FFFFFFFFFFFFFFF7FEF7FEF7FFFFFFF7BE
:10443000FEF7FEFFFEFFDFFFE841E841FFFFDFFF81
:10444000FFFFFFFFDFFFDFFFE8499EFFDFFFFFFF0A
:10445000FFFFFEFFFEFFFFFFFFFFFEF7FFF7DEF7A8
:10446000DFFFE8498739FFFFBFFFDEFFFEFFFEFFEA
:10447000FEFFFFFFDEF7FFFFFEFFFFFFFFFFFFFF77
:10448000E839E9318F63093AFFFFFFFFFFFFFEFFC5
:10449000FEFFFEFFFEF7FFF7FEF7FFF7FFF7DFFF78
:1044A000C849A741DFFFFFFFDFF7DFF7FFFFFFFF8F
:1044B000C739DFFFFFFFDEF7FFFFFEFFFFFFFFFF54
:1044C000BEF7FFFFFEF7FEFFFFFFFFFFDFFFC7396D
:1044D000FFFFFFFFFFFFFEF7FEFFFFFFFFFFFEFFF7
:1044E000FFFFFFFFFEFFFEFFFEFFDEFFA741BFFF56
:1044F000DFFFFFFFFFFFDEF7FEFFFFFFFEFFFFFF17
:10450000FEFFFFFFFFFFDEFFDFFFC741FFFFDEF71C
:10451000FFFFDEFFFFFFFFFFA749C749FFFFFFFFC8
:10452000FFFFFFFFFFFFBEF70742FFFFFEFFFEFF9B
:10453000FEFFFEFFFEF7FFFFFEFFDEFFFFFFFFFFB8
:10454000FEF7FFFFFFFFE849A739C841094AA74125
:10455000A841E849E849C741FFFFFFFFDEFFFFFF31
:10456000FFFFDEFFDEFFFFFFFFFFDFFFDFFFDFFFFD
:10457000E849C741DFFFFFFFFFFFFEF7DEFFFFFF58
:10458000FFFFFFFFFFFFFEFFFFFFFFFFFFFFE83919
:10459000E9297063E939FFFFFFFFFFFFFEFFFEFF20
:1045A000FFFFFFFFFFFFFFFFFFF7FFFFFFFF874159
:1045B000C849FFFFDEF7FFFFFFFFDFFFDFFF084215
:1045C000FFFFFFF7FFFFDEF7FFFFFFFF0842A63107
:1045D000DEF7FEFFFFFFFFFFDFFFFFFFC739FFFF33
:1045E000FEFFFFFFFEFFFEFFFFFF0742C639FFFF92
:1045F000FEFFFEFFFEFFFEFFFFFFE7419EFFFFFF06
:10460000DFF7FFFFFFFFDEF707422742FEFFFFFF56
:10461000FEFFFEFFFFFFFFFFC741FFFFFFFFDEF7CB
:10462000FFFFFFFFFEFFA741C749FFFFFFFFFFFF9F
:10463000FFFFFEFFBDF70742FFFFDEFFFEFFFEFFAD
:10464000FEFFFEFFFEFFFFFFFFFFFEF7FFFFFEFF87
:10465000FFFFDFFFC741A739DFFF9FFFBFFFBFFF9E
:10466000DFFFBFFFC741FFFFFEFFFEFFFEFFDEFFD4
:10467000FFFFFFFFDEFF0842E8498741E851E849B4
:10468000A741FFFFFEFFFEF7FFFFFFFFFEFF2842EF
:10469000FFFFFFFFFEFFFFFFFEFFFFFFE839092AD4
:1046A0008F630932FFFFFFFFFFFFFFFFFFFFFFFFE9
:1046B000DFFFDFFFFFFFDFFFBFFFDFFFA841C841D4
:1046C000FFFFFEFFFFFFFFFFFFFFFFFF083AFFFFB7
:1046D000FFFFFEFFFFFFFFFFDFFFE841A739FFFFFE
:1046E000FFFFFEFFFFFFFEFFFFFFC739FFFFFFFFDA
:1046F000FFFFFEF7FEFFFEFFE741C741FFFFFEFFA2
:10470000FEFFFEFFFEFFFFFFC739DFFFDFFFDFFF1A
:10471000FFFFFFFFDFFF0742E739DEFFFFFFFEFF7E
:10472000FFFFFFFFDFFFC739FFFFFFFFFFFFFFFFB7
:10473000FFF7FFFFE841E849DFFFFFFFFFFFFEFF54
:10474000FEFFDEFFE741FFFFFFFFFEFFFEFFFEFF74
:10475000FEFFFEF7FFFFFFFFFEF7FEF7FEFFFEFF87
:10476000FFFF0842C741FFFFDFFFFFFFFFFFFFFF23
:10477000FFFFE741FFFFFFFFFEFFFEFFFFFFFFFF21
:10478000DFFFBFFFC849C8498849A849E849C74170
:10479000FFFFFFFFFEFFFFFFDFFFDFFFA739DFFFA8
:1047A000FFFFFEFFFEFFFFFFFFFFE839092A8F63CF
:1047B0000932FFFFFEFFFEFFFFFFFFFFFFFF094281
:1047C000A739E849C849C849E9490952C841FFFF22
:1047D000FEFFFFFFFFFFFFFFDFFF0842FFFFFFFFBE
:1047E000FEFFFEFFDEFFFFFFE841A739FFFFFFFFEF
:1047F000FEFFFFFFFEFFFFFFA741FFFFFFFFFFF7E9
:10480000FFFFDEF7DEFF074AE741FFFFFFFFFEFF86
:10481000FEFFFFFFFFFFC741FFFFDFFFFFFFFFFFBF
:10482000FEFFFFFFE7410742FFFFDEF7FFFFFEF756
:10483000DEF7DFFFE741FFFFFFFFFFFFFFFFFFFFA7
:10484000FFFFE741E741DFFFFFFFFEFFFEFFFEFF47
:10485000DEFFE841FFFFFFFFDEFFFFFFFEFFFFFF80
:10486000FFFFFFFFFFFFFEF7FEFFFEFFFFFFFFFF63
:10487000E841C741FFFFFEFFFFFFFFFFFFFFFFFF14
:10488000E741FFFFFFFFFEFFFEFFFFFFFFFFE849DD
:10489000E849E949C9410A42C939E949A739FFFF4D
:1048A000FEFFFFFFFFFFFFFFDFFFC841BFFFFFFF6E
:1048B000FFFFFEFFFFFFFFFFE839092A8F63083281
:1048C000FFFFFEFFFEFFFEFFFFFFFFFFC739094AA4
:1048D000C841C841C941C841A841C741FFFFFEF7CF
:1048E000FFFFDFFFDFFFDFFFE841DFFFFFFFDFFF4D
:1048F000FFFFDEFFBFFFE849E841FFFFFFFFFEFFCC
:10490000FFFFFEFFFFFFA741FFFFFFFFFFFFFFF7D6
:10491000FFF7FEFFE7410842FEF7FFF7FEF7FEF75D
:10492000FFFFFFFFE841FFFFFFFFFFFFFFFFFEFF6D
:10493000FFFF0842E741FFFFFFFFFEFFFFF7FFFF1A
:10494000DFFFC741FFFFDEF7FFFFDEF7FFFFFEFFE0
:10495000FFFFDEF7FFFFFEF7FEFFFEFFFFFFDEFFBC
:10496000E841FFFFFFFFDEFFFFFFFFFFFFF7083A11
:10497000E739BEF7FFFFFEFFDEF7FFFFDFFFE84985
:10498000C741FFFFFEFFFFFFFFFFFFFFFFFFE74104
:10499000FFFFFFFFFEFFFEFFFFFFFFFFC841094AC9
:1049A0004B3A368D36757685E931C841FFFFFEFFFB
:1049B000FFFFFFF7FFF7FFFFA639FFFFFFFFFFFF36
:1049C000FFFFFFFFFFFFE839092A8F630932FFFF6E
:1049D000FEFFFEFFFEFFFFFFFFFFE841E83909325F
:1049E0002A324B32E9310942C741FFFFFEFFFFFF88
:1049F000DFFFDFFFDFFFE841DFFFDEFFDEFFFFFF5E
:104A0000DEFFDFFFC741E739FFFFFFFFFEFFFFFFCC
:104A1000FEFFFFFFA741FFFFFFFFFFF7FFF7FFF7D5
:104A2000FFFFE741E741FFFFFFF7FFF7FEF7DFFF7B
:104A3000FFFFE841FFFFFFFFFEFFFEF7FFFFFFFF65
:104A4000C739E841FFFFDFFFFFFFFFF7DEF7DFFFBA
:104A5000E849FFFFFFFFFEF7FEFFDEFFDEF7FFF78F
:104A6000FFF7FFF7FEF7FFFFFEFFFEFFDEF7E74170
:104A7000FFFFFFFFFEFFFFFFFFFFFFFFE739E741FB
:104A8000DFFFDEFFDEFFFFFFFFFFDFFFE849C7417B
:104A9000FFFFFEFFFFFFFFFFFFFFFFFFE741FFFFFD
:104AA000FFFFFEFFFEFFFFFFFFFFC8410A3A2A2279
:104AB000B875F865976D2A32A839FFFFFFFFFEF73A
:104AC000FFFFFEF7DEF7C639FFFFFFFFFFFFFFFF27
:104AD000FFFFFFFFE839092A905B0932FFFFFFFF64
:104AE000FFFFFEFFFFFFFFFF293A7795766D976581
:104AF000D865566D0932C841FFFFFEFFFFFFFFFF7B
:104B0000FFFFDFFFE841FFFFFFFFFEFFFFFFDEFFCC
:104B1000FFFFE741E741FFFFFFFFFEFFFFFFFEFF53
:104B2000FFFFA741FFFFFFFFFFFFFFFFFFFFFFFFAB
:104B3000A7418639FFFFDEF7FFFFFFFFDFFFFFFF23
:104B4000C741FFFFFFFFFEFFFFFFFEF7FFFF084229
:104B5000E741FFFFFFFFFFFFFEFFDEFFDFFFA74193
:104B6000FFFFFEF7FEFFFEF7FEF7FEFFFEF7FEF784
:104B7000FFFFFFFFFFFFFFFFFEF7DEF7E739FFFF55
:104B8000FFFFFEFFFEFFFEFFDEFFE741C741DEFF46
:104B9000FEFFFEFFFEF7FFF7FFFFE841C741FFFF03
:104BA000DFFFFFFFFFFFFFFFFFFFE741FFFFFFFF0B
:104BB000FFF7FFF7FFF7FFFFC9412B329875B85594
:104BC000D84DD8654A32A739DFFFDEFFFEF7FEF782
:104BD000FFFFFFFFE741FFFFFFFFFFF7FFF7FFF7D3
:104BE000FFFF083A092A905B0932FFFFFFFFFFFF32
:104BF000FFFFFFFFFFF70A32367DB85DF94DF84D34
:104C0000D86DC921E841FFFFFEFFFFFFFFFFFFFF57
:104C1000DFFF0742FFFFFEFFFEFFDEF7FEFFFEFFA6
:104C2000DEFFBEF7FFFFFFFFFEFFFFFFDEFFDFFF40
:104C3000A741FFFFFFFFFFFFDEF7FEFFFFFFBEFF05
:104C4000FFFFFFFFFFFFFFFFFFFFDFFFFFFFC73992
:104C5000FFFFFFFFFEF7FDF7FEF7FFFFDEF7DFFFC9
:104C6000FFFFBEF7FEFFFFFFDEFFDFFFA741084AA1
:104C70000742FEF7FEFFFEFFFEFFFEFFFFFFDFFF26
:104C8000FFFFFFFFFEF7FEFFDEF70742FFFFFEFF1D
:104C9000FEFFFEFFFEFFFFFFFFFFFFFFFFFFFEFF28
:104CA000FEFFFFFFFFF7DFFFE841C741FFFFDEFF29
:104CB000FFFFFFFFFFFFFFFFE741FFFFFFFFFEF7E3
:104CC000FFF7FFF7FFFF09424B2A985DF94DF845C2
:104CD000F8650922094AFFFFFFFFFEFFFFFFDEFF25
:104CE000DEFFFFFFDFFFFFFFFEF7FFF7FFF7FFFF2E
:104CF000083A092A905B0932FFFFDFFFFFFFFEFF42
:104D0000FFFFFFF72A325785B965D94DD94DB865F0
:104D10000A2AE841FFFFFEFFFFFFFFFFFFFFDFFF63
:104D20000742FFFFFFFFFEFFFFFFDEF7FEFFDEF79C
:104D3000FFFFDEFFFFFFFFFFFFFFDEFFDFFFA741FB
:104D4000FEFFFEFFFFFFFEF7FEF7FEF7BEF7FFFFD9
:104D5000DEF7FFFFFEFFFFFFFFFFFFFFC739FFFF8B
:104D6000FFFFFEF7FEFFFEFFFEFFFFFFDEFFFEFF81
:104D7000FFFFFEF7FFFFDEFFFFFF8739A841E8498D
:104D8000DFFFFFFFDEFFFEFFFFFFDEFFFFFFFFFF96
:104D9000FFFFFFFFFEFFDEFFE741FFFFFFFFFEFF1C
:104DA000FEFFFEFFFEFFFEFFFFFFFEFFDDFFFEFF3B
:104DB000FFFFFFF7DFFFE841C739FEFFFEFFFEFF01
:104DC000FFFFFFFFFFFFE741FFFFFEFFFEFFFEFFCC
:104DD000FEFFFFFFE9394A2AB95D1A4EF845B8656A
:104DE0006A3AA739DFFFFEFFBEF7FFFFFEFFFFFFB6
:104DF000FFFFFFFFFFFFFEFFFEFFFFFFFFFFE839A2
:104E0000092A8F630932FFFFDFFFFEFFFEFFFEFF6F
:104E1000FFF70A32377D995DDA4DB945B8650A2A40
:104E2000C839FFFFFEFFFFFFFFFFFFFFDFFFE84185
:104E3000FFFFFFFFFFFFFFFFFFFFFEF7FEF7FEFF95
:104E4000FFFFFFFFFFFFFFFFDEFFFFFFA741FEFFAA
:104E5000FEFFFEFFFEFFFEF7FEFFFEFFDFFFFFFF90
:104E6000FFFFFEF7FFFFFFFFDFFFA741FFFFFFFF91
:104E7000FEF7FEFFFEFFFEFFFFFFFFFFFFFFFEF757
:104E8000FEF7FFFFFFFFFFFF0942E941E941E9416A
:104E9000FFFFFFFFFFFFDFFFBEFFFFFFFFFFFEF78C
:104EA000FFFFFEFFDEFFE741FFFFFFFFFEFFFEFF0C
:104EB000FEFFFEFFFEFFFEF7FEFFFFFFFFFFFFFF0F
:104EC000FFFFDFFFE849C739FEFFFEF7FEF7FFFFF0
:104ED000FFFFFFFFC741FEFFFEFFFEFFFEFFDEFFFD
:104EE000FFFFE8396B2AD85DFA45F94D98656B3AB2
:104EF000E841FFFFFFFFFFFFDEFFFFFFFFFFDFF7E0
:104F0000FFFFFFFFFEFFFEFFFFFFFFFFE839092A5B
:104F1000AF63E831FFFFFFFFFEFFFEFFFEFFFFF77D
:104F2000092A777DB95DFA4DD94DB8652A32C8395D
:104F3000FFFFFFFFFFFFFFFFFFFFBFFFA741C841CC
:104F4000C841BEFFDEF7FFF7FEF7FFFFFFFFFEFFE2
:104F5000FEF7FFFFFFFFDEFFFFFFA639FFFFFEFFAB
:104F6000DEFFDEFFFEFFFEFFFEFFFFFFFFFFFFFF96
:104F7000FEF7DEF7C84187418741DFFFFFF7FFF704
:104F8000FEFFFFFFFEFFFEF7FFFFFFF7FEF7FEF756
:104F9000FFF7C7398739A831568D1585C939E949D1
:104FA000C841C841A741C741FFFFFFFFFFFFFEF710
:104FB000FEFFBEF7E841FFFFFFFFFFFFFFFFFEFF21
:104FC000FEFFFFFFFEF7FEFFDEFFFFFFDFFFBFFF7D
:104FD000A849C8516631FFFFFEF7FEF7FFFFFFFF4C
:104FE000FFFFC741FFFFFFFFFEF7FEFFFFFFFFFFD1
:104FF000083A4A2AD85DF945FA4D98650A2A88394F
:10500000E849DFFFDEFFFEFFFEFFFFFFFFFFFFF7C8
:10501000FFFFFFFFDEF7FFFFFFFFC7310A326E5BC6
:10502000293ADFFFFFFFFEFFDEF7FFFFFFFF093238
:105030007785985DFA4DB845B865E929C841FFFF05
:10504000DEFFFFFFDFFFDFFFDFFFC841E949E8497F
:10505000BFFFFFFFFFFFFFFFFFFFDEF7FFFFFFF7D1
:10506000FEFFFFFFBEFFDFFFA739FFFFFFFFFFFFD0
:10507000FFFFFEFFFDFFFEFFFEFFFEFFFFFFFFFF46
:10508000FFFFC841E949C849DFFFFFF7FEF7FEFF10
:10509000FEFFFFFFFFFFDEF7FFFFFEF7FFF7FFF763
:1050A000E839E9390A2A777577754B32A931C94150
:1050B000C841C849C749DEFFFEF7FEF7FFFFFFFF03
:1050C000DEFFE841FFFFFFFFFFFFDEFFFFFFFFFF07
:1050D000FFF7FFFFFEF7FFFFDEFFFFFFBFFFA8495F
:1050E000A849E841DFFFFEF7FFF7FFFFFFFFFFFFE3
:1050F000C741DFFFFEFFFFFFFEF7DFFFFFFF083ABC
:105100006A2AD85DF945D94DB85D2B220A3AC941C2
:10511000DFFFBFF7FFFFFFFFFEFFFEFFFEFFFFFF0A
:10512000DEFFFFFFDEFFDFFF0842E9298F63093A58
:10513000DFFFDFFFFFFFFFFFFFF7FFF7E9295785DD
:10514000B95DD94DD94DB8652A2AC841DFFFDFFFC7
:10515000DFFFDFFFDFFF9FFFE949E841A839C841D2
:10516000FFFFDFFFFFFFFFFFFFFFFFFFFFFFFFFF6F
:10517000FFFFDFFFDFFFE841FFF7FFFFFFFFFFFF5C
:10518000FEF7FEFFDEFFFFFFFEFFDFFFDFFFE84170
:10519000E839E839A841DFFFFFFFFFFFFEFFDEFF30
:1051A000FFFFDEFFBEFFBFFFDFFFDFFFE841293A61
:1051B0006B2A7775F865B75D97754B2A0A42E951F6
:1051C000E849C741FFFFFEFFFFFFDEF7BDF7FFFF26
:1051D000E849FFFFDFFFFFFFDFFFDFFFFFFFFFFF0C
:1051E000FFFFFFFFFFFFDFFFC7390942E941E94148
:1051F0008739DFFFDFFFBFFFFFFFDFFFDFFFE8498A
:10520000FFFFDFFFFFFFFFFFDFFFFFFF083A4A2A34
:10521000B85DF9451A4ED94DD86D567DEA31A83999
:10522000E839FFFFFEFFFFFFDEFFFFFFFFFFDFFFAD
:10523000FFFFDFFFDFFFE84109328F63A8310A4A31
:10524000E849C739C739E841093A2A3A5785B85D6C
:10525000F94DF94DB75D0A2AE949C841C841C84925
:10526000C849C849A8410942F494159D093A094A18
:10527000A841C841C841C741C741E841C841C849E0
:10528000C849A741A841FFFFFFF7FFFFFFF7FFFF56
:10529000FEFFC639C741E741C741A739E941D48C70
:1052A000F48C0942BFFFDFFFFFFFFEFFFFFFDEF7C9
:1052B000E841094AC849C8492A52C9311585B87513
:1052C000975DF955D85577656B22C9317FFFDFFFB0
:1052D0009EFFFFFFFFFFFEF7FFFFFFFFBEFF8741BF
:1052E000C849E8418739084AA741A841A741C741B1
:1052F000C741E849A739093A09323695E9392A52AE
:10530000A849C851A749A849C8490952C849C8412C
:10531000C841E841E841C839E839E9414A2AB85D5D
:10532000F94DFA45D945D855976537852A32093A56
:10533000C839E841E741C749C749A741E849A741FA
:10534000A741C8494A52A8296F63EA39CA4988491E
:105350000A52A841C949EA41C9313785B75D184E9B
:10536000D73DD8652B32A9498841A949A94988491F
:105370008949A9392A2A768576852A2AEA39EA4985
:10538000A949C951C951C949C951A949C951E95185
:10539000A949C849DFFFFFFFDFF7FFF7FFFFFFFF66
:1053A000C741E849C841E9410A3A2A2A767D76850B
:1053B000E931FFFFFFFFFFFFFEFFFFFFFFFFA73900
:1053C000A841C951A941E9392A22776DD85D1956FA
:1053D000D94DD95598650A120A3ADFFF9EF7FFFFAB
:1053E000FEFFFFFFFEFFFEF7FEFFBEFFC851A85104
:1053F000A849E951C949C949EA51C951C951C949DD
:10540000C949A8316A32291A157DE9218831C95163
:105410008851A85968498849C9498741E951C85103
:10542000C849C849C949C941EA492B329865D94D8B
:10543000FA45FA45D94DD95D97654B122B320A4290
:10544000C941E951A849C951C9518849C949E951D6
:10545000E951C941A93190532B2AEA310A3ACA3994
:10546000EA392B3AEA29EA215775D8551846394EB8
:10547000B8554B22CA310A3AEA39EA39EA390B3AC5
:105480006C326B12766DB76D77754B2AEB31CA3182
:10549000EA390A3AEA390B42CA39EA39C939A94123
:1054A000E949FFFFFFFFFFFFFFFFFEF7FFFF094294
:1054B0000A42E9390A2A4B22366D76659775E92941
:1054C000BFFFFFFFFEFFFEFFFEFFDFFFE841E941F8
:1054D000C9390A326B2A576DB85DD84DD945D945BF
:1054E000D955B86D4A1A093ADFFFFFFFFFFFFFFFEA
:1054F000DEFFFEF7FFFFFFFFDFFFE951C949E9418A
:10550000E939C9312A3AA9310B42EA39EA310A3A72
:105510002A2A7775B8755665CC224B32C931A9391C
:10552000CA410A420A3A0A3A2A3AE9390A3A2A4266
:10553000E9390A3AEA314B3A2B1A985DD945FA45CE
:105540001A46D94DD94D195ED86537754C32CA29DE
:10555000EA39EA390A3AEB39CA39EA39EA39C9315A
:10556000E9314B2A9865986DB8757875B97D576D96
:1055700077759875986DD865F94DF945D945D95520
:10558000B96D9875B875576D776D9875987577651D
:105590001A6ED85D9855B95D9865B975B975D875A5
:1055A0009775B8759875987597757785569DC839AC
:1055B000DEFFFEFFDEFFDEF7FFFFDFF7093A4B32CB
:1055C000157D9775975DB85DB75D97752A32BFFFFA
:1055D000DEF7FEFFFEFFFEFFDFFF083A092A5685D1
:1055E0009775775D195EB845FA4DFA45FA4DD9556C
:1055F00098656A12293ADFFFFEFFFEFFFFFFFFFFFB
:10560000FFFFDFF7C841C841E939368D977DB7758F
:10561000D8759775B875B97DD975B875B875B96D00
:10562000785DB955D95DB85DB96DB9757775777520
:105630009875776DB875D975976DB875B875B87573
:10564000B875B875B86DD865F955F94D1A46FA456B
:10565000D945F94DD84DF85D975D986DB975997537
:1056600098759875987578759875B875B77D9775AC
:10567000B865D855195ED855B855B855B855985528
:105680009855984DF955F94DF945FA4DFA4DB955DA
:10569000B855B855B855D855D955B855F955D94D07
:1056A000D94DD94DFA4DD94DD955D955D955D8558A
:1056B000F955B84DB855F85DD76D5685E831FFFFFF
:1056C000FFFFFFFFFFFFFFFFFFFF09324B2A777548
:1056D000985DD955F84DB8559775EA31DFFFFFFF52
:1056E000FFFFFEFFFFFFFFFF08326A2AB775F8656C
:1056F000F84DF94DF945FA45FA4DD945FA55975DFA
:105700004A12293AFFFFDEFFFFFFBEFFFFFFDFFF68
:10571000BFF7C939EA314C3257759755F855D85506
:10572000D855B8559855D855D855F95DD955D94D4E
:10573000D94DD94DFA4DD955B855D955D95D984D52
:10574000D855B855B84DD855B855D855D955B84D80
:10575000F9551956F94DF94DF9451A461A461946A3
:10576000194EF94DD84DF955D955F95DD95D984D7A
:10577000D9559855B955F955B84DD85DB855F9551D
:10578000D94DD94DD94DD94DD94DD94DD94DD94DE9
:10579000D94DF94DF94DF94DF94DF94DF94DF94DF9
:1057A000F94DF94DF94DD94DD94DF94DF94DD94D29
:1057B000F94DFA4DFA4DF94DF94DF94DF94DF94DB7
:1057C000D94DB94DF955B85D777D092AFFFFDFFF47
:1057D000DFFFDFFFDFFFDFFF093A6B2AB865F9550E
:1057E000F94DF94DD955B8750A32BFFFFFFFBFFF1C
:1057F000DFFFDFFFBFFF093A4A22976DD855D94531
:10580000F945F945FA4DD945FA4DD95598654B1AE0
:10581000093ADFFFDFFFBFFFDFFFDFFFDFFF4B42A4
:105820002B3A6D32786DB85D1956194ED845F94D41
:10583000D955D955F94DF94DF94DF94DF945F94578
:10584000F94DD94DD94DD94DD94DD94DD94DD94D08
:10585000F94DF94DF94DF94DF94DF94DF94DF94D18
:10586000F94DF94DF94DF94DF94DF945F94DF94D10
:10587000F94DF94DD94DD94DD94DD94DD94DD94DB8
:10588000D94DF94DF94DF94DD94DF94DF94DF94530
:10589000F945F94DF94DF94DF94DF94DF94DF94DE0
:1058A000F94DF94DF94DF94DF94DF94DF94DF945D0
:1058B000F945F94DF945F94DF94DF94DF94DF94DC8
:1058C000F94DF94DF94DF94DF94DF94DF945F94DB0
:1058D000F94DD94DB85D987DC8214A4AA741E841A4
:1058E000A841C841C841C8314B2AB85DD945D945FE
:1058F000B94DD95D78750A32C949C841C841A84136
:10590000C841C841E9398C2AB86DD955F945FA45DD
:10591000F94DFA4DD94DFA4DD95598654B1A0942B2
:10592000A7418639C841C849C841E9410A32798D41
:105930005875D965D84DD83D1946FA45FA4DD94D17
:10594000F94DF94DF945F945F945F945F945FA4D4E
:10595000FA4DFA4DF94DF94DF94DF945F945F9452D
:10596000F945F94DF94DF94DF94DF94DF94DF94D0F
:10597000F94DF94DF94DF94DF94DF94DF94DF94DF7
:10598000F94DF94DF94DF94DF94DF945F945F94DF7
:10599000F94DF94DF94DF94DF94DF94DF945F945E7
:1059A000D945F945F945F945F945F945F94DF94D17
:1059B000F94DFA4DF94DF94DF94DF945F945F945CE
:1059C000F94DF94DF94DF94DFA4DF94DF94DF94DA6
:1059D000F94DF94DF94DF94DF94DF945D945FA4DC6
:1059E000D94D9855777D092AC839094AE849C841EF
:1059F000E949E849C8392A22B965FA4DFA4DD94D25
:105A0000B855776D2A3AA841C849E849E949E949B2
:105A100067392A422A1A7765D955D945FA4DF94D81
:105A2000FA4DD94DFA4DD955B9654B1AE939E849BE
:105A3000E849E849C849C841C939E9293775B9650C
:105A4000D855194E19461946D945D94DD94DF94D54
:105A5000F945F945D94DF94DD94DD94DD94DF945AE
:105A6000F945F945F945F945F945F945F945F94546
:105A7000F945F945F945F945F945F945F94DF94D26
:105A8000F94DF94DF94DF94DF94DF94DF94DF94DE6
:105A9000F94DF94DF94DF94DF94DF94DF94DF94DD6
:105AA000F945F945F94DF94DF94DF945F945F94DE6
:105AB000F94DF94DF94DF94DF94DF94DF94DF94DB6
:105AC000F94DF94DF94DF94DF94DFA45FA45F94DB4
:105AD000F94DF94DF94DF94DF94DF94DF94DF94D96
