:020000040800F2
:1000000068060020CD010008D10300088D02000819
:10001000CD030008870200089505000800000000D5
:10002000000000000000000000000000D5030008F0
:100030008B02000800000000D3030008C104000880
:10004000E7010008E7010008E7010008E7010008F0
:10005000E7010008E7010008E7010008E7010008E0
:10006000E7010008E7010008E7010008E7010008D0
:10007000E7010008E7010008E7010008E7010008C0
:10008000E7010008E7010008E7010008E7010008B0
:10009000E7010008E7010008E7010008E7010008A0
:1000A000E7010008E7010008E7010008E701000890
:1000B000E70100084105000869050008E70100089C
:1000C000E7010008E7010008E7010008E701000870
:1000D000E7010008E7010008E7010008E701000860
:1000E000E7010008E7010008E7010008E701000850
:1000F000E7010008E7010008E7010008E701000840
:10010000E7010008E7010008E7010008E70100082F
:10011000E7010008E7010008E7010008E70100081F
:10012000E7010008E7010008E7010008E70100080F
:1001300000F002F800F03AF80AA090E8000C8244BF
:100140008344AAF10107DA4501D100F02FF8AFF29C
:10015000090EBAE80F0013F0010F18BFFB1A43F0A5
:100160000103184794040000B4040000103A24BFAF
:1001700078C878C1FAD8520724BF30C830C144BF0C
:1001800004680C607047000000230024002500264E
:10019000103A28BF78C1FBD8520728BF30C148BFEA
:1001A0000B6070471FB51FBD10B510BD00F031F8D2
:1001B0001146FFF7F7FF00F0EFF900F04FF803B436
:1001C000FFF7F2FF03BC00F057F800000948804732
:1001D00009480047FEE7FEE7FEE7FEE7FEE7FEE729
:1001E000FEE7FEE7FEE7FEE704480549054A064B41
:1001F00070470000E1040008310100086800002099
:1002000068060020680200206802002070477047DE
:100210007047754600F02CF8AE4605006946534617
:1002200020F00700854618B020B5FFF7DDFFBDE8D8
:1002300020404FF000064FF000074FF000084FF04D
:10024000000B21F00701AC46ACE8C009ACE8C009DE
:10025000ACE8C009ACE8C0098D46704710B504464B
:10026000AFF300802046BDE81040FFF7A8BF0000B4
:10027000004870470400002001491820ABBEFEE78B
:1002800026000200704700BFFEE7704700BFFEE790
:100290001148806940F008000F4988610F480068E4
:1002A00020F470000D4908600846006840F44010D2
:1002B00008600948806940F04000074988610848A3
:1002C000006820F47000064908600846006840F4A1
:1002D000401008607047000000100240000C014010
:1002E00000180140014601F007021202054B186890
:1002F0004FF6FF031840044B18431043014B18609E
:10030000704700000CED00E00000FA0500204FF0FF
:10031000E0210861034848610846006940F0030095
:10032000086170478F5F010007210020234A52684F
:10033000234B1A40214B5A601A461268214B1A402F
:100340001E4B1A601A46126842F480321A6000BFCF
:100350001A4A1268520C002AFAD04FF48062174BE6
:100360005A601A46526842EA81425A601A465268F6
:1003700042F480325A60144A126842F03202124B40
:100380001A600E4A126842F080720C4B1A6000BF6D
:100390000A4A1268520E002AFAD0084A526842F0FD
:1003A0000202064B5A6005E0044A5268C2F3870015
:1003B00000F003000228F7D170470000001002404F
:1003C0000000FFF8FFFFF6FE0020024000BFFEE73E
:1003D00070477047704710B500F002F810BD00007C
:1003E0000CB50020019000903348006840F4803044
:1003F0003149086000BF3048006800F400300090C8
:100400000198401C0190009818B90198B0F5A06FB0
:10041000F1D12948006800F4003010B101200090AB
:1004200001E0002000900098012843D12348006893
:1004300040F01000214908600846006820F00300E1
:1004400008600846006840F0020008601A484068EA
:10045000194948600846406848600846406840F4CA
:10046000806048600846406820F47C104860084678
:10047000406840F4E81048600846006840F080702A
:10048000086000BF0C48006800F000700028F9D038
:100490000948406820F00300074948600846406862
:1004A00040F00200486000BF0348406800F00C00C4
:1004B0000828F9D10CBD00000010024000200240C5
:1004C00005480078401C0449087004480078401C26
:1004D0000249087070470000000000200100002061
:1004E00010B51348006840F0010011490860084643
:1004F0004068104908400E494860084600680E49A7
:1005000008400B4908600846006820F48020086015
:100510000846406820F4FE0048604FF41F008860E1
:10052000FFF759FF4FF000600449086010BD00005C
:10053000001002400000FFF8FFFFF6FE08ED00E0AB
:100540000748008800F0010010B12020054908602C
:100550000348008820F0010001490880704700002E
:1005600010040040100C01400848008800F0010011
:1005700028B10748006880F020000549086003485A
:10058000008820F0010001490880704710080040F1
:100590000C18014000BFFEE700BF00BFFFF7C4FE1C
:1005A000FFF776FE0520FFF79DFEFFF7AFFE19E08F
:1005B0000D4800780B2808DB00200B4908700B4819
:1005C000006880F020000949086009480078112877
:1005D00008DB0020064908700648006880F020000B
:1005E00004490860E4E70000000000200C0C014012
:1005F000010000200C18014018060008000000202F
:10060000040000006C0100081C0600080400002023
:0C061000640600008801000800000000E3
:04000005080001CD21
:00000001FF
