:020000040800F2
:1000000068060020CD010008C90400089902000814
:10001000C504000887020008390600080000000037
:10002000000000000000000000000000CD040008F7
:100030008B02000800000000CB040008B90500088E
:10004000E7010008E7010008E7010008E7010008F0
:10005000E7010008E7010008E7010008E7010008E0
:10006000E7010008E7010008E7010008E7010008D0
:10007000E7010008E7010008E7010008E7010008C0
:10008000E7010008E7010008E7010008E7010008B0
:10009000E7010008E7010008E7010008E7010008A0
:1000A000E7010008E7010008E7010008E701000890
:1000B000E7010008E7010008E7010008E701000880
:1000C000E7010008E7010008E7010008E701000870
:1000D000E7010008E7010008E7010008E701000860
:1000E000E7010008E7010008E7010008E701000850
:1000F000E7010008E7010008E7010008E701000840
:10010000E7010008E7010008E7010008E70100082F
:10011000E7010008E7010008E7010008E70100081F
:10012000E7010008E7010008E7010008E70100080F
:1001300000F002F800F03AF80AA090E8000C8244BF
:100140008344AAF10107DA4501D100F02FF8AFF29C
:10015000090EBAE80F0013F0010F18BFFB1A43F0A5
:10016000010318476006000080060000103A24BF13
:1001700078C878C1FAD8520724BF30C830C144BF0C
:1001800004680C607047000000230024002500264E
:10019000103A28BF78C1FBD8520728BF30C148BFEA
:1001A0000B6070471FB51FBD10B510BD00F031F8D2
:1001B0001146FFF7F7FF00F041FA00F04FF803B4E3
:1001C000FFF7F2FF03BC00F057F800000948804732
:1001D00009480047FEE7FEE7FEE7FEE7FEE7FEE729
:1001E000FEE7FEE7FEE7FEE704480549054A064B41
:1001F00070470000D90500083101000868000020A0
:1002000068060020680200206802002070477047DE
:100210007047754600F02CF8AE4605006946534617
:1002200020F00700854618B020B5FFF7DDFFBDE8D8
:1002300020404FF000064FF000074FF000084FF04D
:10024000000B21F00701AC46ACE8C009ACE8C009DE
:10025000ACE8C009ACE8C0098D46704710B504464B
:10026000AFF300802046BDE81040FFF7A8BF0000B4
:10027000004870470400002001491820ABBEFEE78B
:1002800026000200704700BFFEE77047002100E033
:10029000491C8142FCD3704700BFFEE711488069CA
:1002A00040F008000F4988610F48006820F4700092
:1002B0000D4908600846006840F44010086009488D
:1002C000806940F04000074988610848006820F4D0
:1002D0007000064908600846006840F44010086055
:1002E0007047000000100240000C0140001801405F
:1002F00000B50346002B03DBFA2B01DC00F02CFADF
:10030000FA2B04DBB3F5FA7F01DC00F03BFAB3F51E
:10031000FA7F05DB40F2EE20834201DC00F0E6F9D3
:1003200040F2EE20834204DBB3F57A7F01DC00F07B
:10033000BDF9B3F57A7F05DB40F2E240834201DC90
:1003400000F09EF940F2E240834205DB40F2DC50CF
:10035000834201DC00F0E0F900BD00002C4A926904
:1003600042F010022A4B9A612A4A126822F07F4218
:10037000284B1A601A46526842F03B425A601A46AD
:10038000526822F00F025A601A46126842F00B02BD
:100390001A601F4A926942F001021D4B9A611E4A7F
:1003A000526822F440621C4B5A601A46526842F46A
:1003B00000625A601A46526842F480625A60144AD7
:1003C000D26942F00202124BDA61144A1080121F05
:1003D0001180124A143A128842F4E0420F4B143B47
:1003E0001A801A46128842F400621A800B4A0C3AAC
:1003F000128842F01002094B0C3B1A808022074BF6
:100400002C3B1A801A46128842F001021A8070476B
:100410000010024000100140000001402C04004088
:1004200007210020234A5268234B1A40214B5A606F
:100430001A461268214B1A401E4B1A601A4612685F
:1004400042F480321A6000BF1A4A1268520C002A25
:10045000FAD04FF48062174B5A601A46526842EA4B
:1004600081425A601A46526842F480325A60144AF5
:10047000126842F03202124B1A600E4A126842F0C1
:1004800080720C4B1A6000BF0A4A1268520E002A92
:10049000FAD0084A526842F00202064B5A6005E060
:1004A000044A5268C2F3870000F003000228F7D123
:1004B00070470000001002400000FFF8FFFFF6FE4A
:1004C0000020024000BFFEE770477047704710B53C
:1004D00000F002F810BD00000CB500200190009063
:1004E0003348006840F480303149086000BF30482C
:1004F000006800F4003000900198401C01900098C2
:1005000018B90198B0F5A06FF1D12948006800F43E
:10051000003010B10120009001E000200090009810
:10052000012843D12348006840F0100021490860A9
:100530000846006820F0030008600846006840F0A4
:10054000020008601A484068194948600846406837
:1005500048600846406840F480604860084640684B
:1005600020F47C1048600846406840F4E810486079
:100570000846006840F08070086000BF0C480068C2
:1005800000F000700028F9D00948406820F003000E
:10059000074948600846406840F00200486000BFD4
:1005A0000348406800F00C000828F9D10CBD000099
:1005B000001002400020024005480078401C044919
:1005C000087004480078401C024908707047000019
:1005D000000000200100002010B51348006840F022
:1005E00001001149086008464068104908400E495A
:1005F0004860084600680E4908400B4908600846F4
:10060000006820F4802008600846406820F4FE005E
:1006100048604FF41F008860FFF759FF4FF00060FB
:100620000449086010BD0000001002400000FFF8FF
:10063000FFFFF6FE08ED00E000BFFEE70024012505
:10064000FFF7EEFEFFF72AFE472142F20F70FFF799
:1006500085FE13E040F2DC50FFF718FE15B1601C78
:1006600084B201E0601E84B240F2DC50844200DDBE
:10067000002504B901252046FFF73AFEEAE700000D
:1006800000B50848406940F4807006494861064852
:10069000FFF7FCFD0348006940F4807001490861E0
:1006A00000BD000000100140A086010000B50D480B
:1006B000406940F480700B4948610846406940F049
:1006C000800048610848FFF7E1FD0648006940F4F2
:1006D0008070044908610846006940F080000861A4
:1006E00000BD000000100140A086010000B50848D0
:1006F000406940F08000064948610648FFF7C6FDA2
:100700000348006940F080000149086100BD000015
:1007100000100140A086010000B50D48406940F07E
:1007200040000B4948610846406940F480704861C8
:100730000848FFF7ABFD0648006940F04000044957
:1007400008610846006940F48070086100BD00003F
:1007500000100140A086010000B50848406940F043
:100760004000064948610648FFF790FD03480069CC
:1007700040F040000149086100BD00000010014048
:10078000A086010000B50D48406940F040000B49CB
:1007900048610846406940F0800048610848FFF71A
:1007A00075FD0648006940F04000044908610846AC
:1007B000006940F08000086100BD000000100140A9
:1007C000A0860100E40700080000002004000000EB
:1007D0006C010008E807000804000020640600001F
:0807E000880100080000000080
:04000005080001CD21
:00000001FF
